:020000040800F2
:1000000000500020AD180008C1170008C7170008ED
:10001000CD170008D3170008D9170008000000000A
:10002000000000000000000000000000DF170008D2
:10003000EB17000800000000F7170008031800087D
:10004000F5180008F5180008F5180008F51800085C
:10005000F5180008F5180008F5180008F51800084C
:10006000F5180008F5180008F5180008F51800083C
:10007000F5180008F5180008F5180008F51800082C
:10008000F5180008F5180008F5180008F51800081C
:10009000F5180008F5180008F5180008F51800080C
:1000A000F5180008F5180008F5180008F5180008FC
:1000B00011180008F5180008F5180008F5180008D0
:1000C000F5180008F5180008F5180008F5180008DC
:1000D000F5180008F5180008F5180008F5180008CC
:1000E00025180008F5180008F518000800000000A1
:1000F0000000000000000000000000000000000000
:0C01000000000000000000005FF808F1A3
:10010C0010B5054C237833B9044B13B10448AFF345
:10011C0000800123237010BDB000002000000000FF
:10012C009843000808B5034B1BB103490348AFF3D0
:10013C00008008BD00000000B400002098430008B7
:10014C0080B400AF054B1B68012B01D1012300E0EB
:10015C0000231846BD4680BC704700BFE400002059
:10016C0080B400AF054B1B68012B01D1012300E0CB
:10017C0000231846BD4680BC704700BFE800002035
:10018C0080B400AF054B1B68012B01D1012300E0AB
:10019C0000231846BD4680BC704700BFEC00002011
:1001AC0080B400AF054B1B68012B01D1012300E08B
:1001BC0000231846BD4680BC704700BFDC00002001
:1001CC0080B400AF054B1B68012B01D1012300E06B
:1001DC0000231846BD4680BC704700BFE0000020DD
:1001EC0080B483B000AF78607B68032B11D07B6840
:1001FC00032B12DC7B68012B03D07B68022B04D011
:10020C000BE0084B01221A6007E0074B01221A6031
:10021C0003E0064B01221A6000BF00BF0C37BD463D
:10022C0080BC7047E4000020E8000020EC000020B7
:10023C0080B483B000AF78607B68032B11D07B68EF
:10024C00032B12DC7B68012B03D07B68022B04D0C0
:10025C000BE0084B01221A6007E0074B01221A60E1
:10026C0003E0064B01221A6000BF00BF0C37BD46ED
:10027C0080BC7047D8000020DC000020E00000208B
:10028C0080B584B000AF7F4B1B687F4A13607F4BF7
:10029C001B687C4A13604FF400517D4801F03EFE10
:1002AC0003461A46794B1A60784B1A68754B1B68D3
:1002BC009A4207D1754B1A68734B1B689A4201D14D
:1002CC00012300E00023FB60FB68002B17D0FB68C8
:1002DC00012B2CD16C4B1B68002B25D16D4B1B6853
:1002EC00002B06D10120FFF7A3FF6A4B96221A6060
:1002FC001AE0684B1B68013B664A136014E0634BC1
:10030C001A68604B1B689A4210D0604B1B685D4AA0
:10031C0013605C4B1B68002B08D15E4B96221A6055
:10032C000120FFF75DFF01E000BF00E000BF5A4B6A
:10033C001B685A4A13605A4B1B68574A13600121B9
:10034C00584801F0EBFD03461A46554B1A60544BC6
:10035C001A68514B1B689A4207D1514B1A684F4B84
:10036C001B689A4201D1012300E00023BB60BB68EB
:10037C00002B17D0BB68012B2CD1484B1B68002BD2
:10038C0025D1494B1B68002B06D10220FFF750FFEB
:10039C00454B96221A601AE0434B1B68013B424ABC
:1003AC00136014E03E4B1A683B4B1B689A4210D00A
:1003BC003B4B1B68384A1360374B1B68002B08D12A
:1003CC00394B96221A600220FFF70AFF01E000BFAA
:1003DC0000E000BF354B1B68354A1360354B1B687A
:1003EC00324A136002212F4801F098FD03461A4649
:1003FC00304B1A602F4B1A682C4B1B689A4207D152
:10040C002C4B1A682A4B1B689A4201D1012300E03D
:10041C0000237B607B68002B17D07B68012B2CD1D1
:10042C00234B1B68002B25D1234B1B68002B06D1BB
:10043C000320FFF7FDFE204B96221A601AE01E4B9C
:10044C001B68013B1C4A136014E01A4B1A68174BCB
:10045C001B689A4210D0174B1B68144A1360134B3D
:10046C001B68002B08D1144B96221A600320FFF74F
:10047C00B7FE01E000BF00E000BF00BF1037BD4673
:10048C0080BD00BF040000200800002000000020F8
:10049C000010014024000020100000201400002057
:1004AC000C00002000080140280000201C00002047
:1004BC0020000020180000202C00002080B500AF88
:1004CC00874B1B68042B00F2098101A252F823F020
:1004DC00F10400080F05000885050008F90500085F
:1004EC006D06000800F06CFD7D4B01221A604FF484
:1004FC007A71002001F02AF87A4B1B687A4A136053
:10050C00ECE000F0FFFD794B1B68012B2AD1764BF8
:10051C001B681A460021012000F036FD724B1A6848
:10052C00734B1B6813441A460021022000F02CFD6B
:10053C006D4B1B68013B6C4A13606B4B1B68002BAB
:10054C0008DC00F03DFD664B02221A60684B1B680C
:10055C00654A1360654B00221A604FF47A710020D3
:10056C0000F0F4FFFFF7FCFD0346012B40F0AF80D9
:10057C00604B00221A60AAE000F0FAFD5B4B1B688E
:10058C00012B2AD1584B1B681A460021012000F080
:10059C00FBFC554B1B681A460021022000F0F4FCB2
:1005AC00514B1B68013B504A13604F4B1B68002B8F
:1005BC000BDC00F005FD4A4B03221A604E4B1A6807
:1005CC004B4B1B68D31A484A1360484B00221A60E5
:1005DC004FF47A71002000F0B9FFFFF7C1FD03461C
:1005EC00012B76D1434B00221A6072E000F01EFD05
:1005FC003E4B1B68012B2AD13B4B1A683C4B1B68AA
:10060C0013441A460021012000F0BEFC364B1B6837
:10061C001A460021022000F0B7FC334B1B68013B4B
:10062C00314A1360304B1B68002B08DC00F0C8FC0F
:10063C002B4B04221A602E4B1B682B4A13602B4B3E
:10064C0000221A604FF47A71002000F07FFFFFF750
:10065C0087FD0346012B3ED1264B00221A603AE05F
:10066C0000F01AFD214B1B68012B27D11E4B1B6878
:10067C001A460021012000F087FC1B4B1B681A4610
:10068C000021022000F080FC174B1B68013B164A2E
:10069C001360154B1B68002B08DC00F091FC104B11
:1006AC0001221A600F4B1B680F4A13600F4B00227C
:1006BC001A604FF47A71002000F048FFFFF750FDEC
:1006CC000346012B09D10B4B00221A6005E000BF39
:1006DC0004E000BF02E000BF00E000BF00BF80BD2F
:1006EC00CC00002034000020D400002008020020A0
:1006FC003C000020E80000203800002080B500AF4E
:10070C00A54B1B68053B082B00F2E78201A252F8AF
:10071C0023F000BF0B0B00086D0B0008CD0B00087D
:10072C002D0C0008E70C0008E70C00084507000832
:10073C00DD0900087108000801220821974801F022
:10074C0004FC01222021954801F0FFFB012210211D
:10075C00924801F0FAFB01224FF480618F4801F0BE
:10076C00F4FB01224FF480718D4801F0EEFB012265
:10077C004FF400718A4801F0E8FB0122802189487E
:10078C0001F0E3FB01224021844801F0DEFBFFF77E
:10079C00E7FC0346012B11D1834B1B680133824AC2
:1007AC001360814B1A68814B1B681344632B02DD69
:1007BC007D4B00221A607E4B00221A60FFF7F0FC82
:1007CC000346012B1AD1784B1B68013B764A136008
:1007DC00764B1A68744B1B681344002B08DD734B63
:1007EC001A68714B1B681A44724B1B689A4202DCE4
:1007FC006D4B00221A60704B00221A600021012000
:10080C0000F0A0FB6D4800F081FB0021022000F0FD
:10081C0099FB6B4800F07AFB644B1A68624B1B68BF
:10082C0013441A460A21022000F0AEFBFFF7A8FC85
:10083C000346012B0CD15D4B1A685B4B1B681344B0
:10084C005A4A1360584B00221A605E4B00221A6001
:10085C00FFF776FC0346012B40F01282524B00222C
:10086C001A600DE2002208214C4801F06EFB0122B7
:10087C0020214A4801F069FB00221021474801F071
:10088C0064FB01224FF48061444801F05EFB0022BE
:10089C004FF48071424801F058FB01224FF4007173
:1008AC003F4801F052FB002280213E4801F04DFBF5
:1008BC0001224021394801F048FBFFF751FC034667
:1008CC00012B1DD1384B1B680133374A1360394B50
:1008DC001A68354B1B681A44344B1B689A4209DA68
:1008EC00394B1B685A1E334B19682F4B1B680B4432
:1008FC009A4202DC2C4B00221A602D4B00221A600B
:10090C00FFF74EFC0346012B11D1274B1B68013B13
:10091C00254A1360274B1A68234B1B681344002B82
:10092C0002DC214B00221A60234B00221A600021AA
:10093C00012000F007FB254800F0E8FA0021022016
:10094C0000F000FB1E4800F0E1FA1A4B1A68164B37
:10095C001B6813441A460A21022000F015FBFFF70E
:10096C000FFC0346012B0CD1124B1A680E4B1B6863
:10097C001344104A13600C4B00221A60114B0022D6
:10098C001A60FFF7DDFB0346012B40F07B81064B21
:10099C0000221A6076E100BFCC000020000C014060
:1009AC000008014000100140D00000203800002059
:1009BC00E80000203C000020DC000020B0430008D0
:1009CC00C0430008EC00002034000020CC43000899
:1009DC0001220821B04801F0B8FA00222021AE48CB
:1009EC0001F0B3FA01221021AB4801F0AEFA00225B
:1009FC004FF48061A84801F0A8FA01224FF48071ED
:100A0C00A64801F0A2FA00224FF40071A34801F0AD
:100A1C009CFA01228021A24801F097FA0022402181
:100A2C009D4801F092FAFFF79BFB0346012B11D175
:100A3C009C4B1B6801339B4A13609B4B1A68994B68
:100A4C001B681344632B02DD964B00221A60974BF4
:100A5C0000221A60FFF7A4FB0346012B1BD1914B1C
:100A6C001B68013B8F4A13608F4B1A688D4B1B68B8
:100A7C001344002B09DD8C4B1A688A4B1B681344FA
:100A8C005A1E8B4B1B689A4202DC864B00221A6062
:100A9C00884B00221A600021012000F053FA86488E
:100AAC0000F034FA0021022000F04CFA834800F0E8
:100ABC002DFA7D4B1A687B4B1B6813441A460A218E
:100ACC00022000F061FAFFF75BFB0346012B0CD10F
:100ADC00754B1A68734B1B681344734A1360714B44
:100AEC0000221A60764B00221A60FFF729FB03469E
:100AFC00012B40F0C9806B4B00221A60C4E000F05F
:100B0C0001FB0021012000F01DFA6E4800F0FEF9F7
:100B1C000021022000F016FA6B4800F0F7F9FFF7FD
:100B2C002FFB0346012B09D100F005FA00F048FA1F
:100B3C00664B06221A60624B00221A60FFF710FB0C
:100B4C000346012B40F0A28000F0F5F95F4B002228
:100B5C001A605F4B01221A60544B00221A6095E018
:100B6C0000F006FB0021012000F0ECF9594800F0E0
:100B7C00CDF90021022000F0E5F9534800F0C6F948
:100B8C00FFF7FEFA0346012B09D100F019FA4F4B7F
:100B9C0007221A604A4B00221A6000F0CCF9FFF7CA
:100BAC00DFFA0346012B73D100F0C5F9474B002245
:100BBC001A60474B01221A603C4B00221A6067E016
:100BCC0000F034FA0021012000F0BCF93E4800F09E
:100BDC009DF90021022000F0B5F93A4800F096F991
:100BEC00FFF7CEFA0346012B09D100F0A4F900F06F
:100BFC00E7F9364B08221A60314B00221A60FFF7D6
:100C0C00AFFA0346012B45D100F095F92F4B00228A
:100C1C001A602F4B01221A60244B00221A6039E013
:100C2C0000F03AFA0021012000F08CF9264800F07F
:100C3C006DF90021022000F085F9264800F066F9D4
:100C4C00FFF79EFA0346012B09D100F074F900F06E
:100C5C00B7F91E4B05221A60194B00221A60FFF7D8
:100C6C007FFA0346012B37D100F065F9174B0022B0
:100C7C001A60174B01221A600C4B00221A602BE0F1
:100C8C0000BF2AE000BF28E000BF26E000BF24E040
:100C9C0000BF22E000BF20E0000C01400008014032
:100CAC0000100140D000002034000020E80000209B
:100CBC003C000020DC000020DC430008C04300089E
:100CCC00EC000020EC430008F4430008CC000020AA
:100CDC0030000020F843000800BF0D4B1B68632B4D
:100CEC0013D10C4B1B68632B0FD10B4B1B68612B67
:100CFC000BD10A4B1B68064A1360094B1B68064A4A
:100D0C001360084B1B68034A136000BF80BD00BF13
:100D1C0038000020340000203C0000200C44000867
:100D2C00104400080844000880B500AF194B1B683C
:100D3C000133184A1360174B1B68042B02DD154B4B
:100D4C0001221A60134B1B68013B032B20D801A214
:100D5C0052F823F0710D0008790D0008850D00087C
:100D6C00910D00080C4B00221A6011E000F028F9DC
:100D7C00094B0B221A600BE000F022F9064B0C22F7
:100D8C001A6005E000F01CF9034B0D221A6000BF3D
:100D9C0000BF80BD30000020CC00002080B500AF2B
:100DAC00FFF7CEF90346012B09D100F0C4F8FFF789
:100DBC00BBFF0B4B00221A600A4B00221A60FFF794
:100DCC00FFF90346012B09D100F0B5F800F0F8F853
:100DDC00054B05221A60054B00221A6000BF80BD2E
:100DEC00E4000020D8000020CC000020E00000200F
:100DFC0080B586B002AF0346FB71FB7923F00F037D
:100E0C00FB73FB791B01BB73FB7B43F00C03DBB265
:100E1C003B72FB7B43F00803DBB27B72BB7B43F082
:100E2C000C03DBB2BB72BB7B43F00803DBB2FB727F
:100E3C0007F108026423009304234221034801F0C4
:100E4C0003FA00BF1037BD4680BD00BFFC00002078
:100E5C0080B586B002AF0346FB71FB7923F00F031C
:100E6C00FB73FB791B01BB73FB7B43F00D03DBB204
:100E7C003B72FB7B43F00903DBB27B72BB7B43F021
:100E8C000D03DBB2BB72BB7B43F00903DBB2FB721D
:100E9C0007F108026423009304234221034801F064
:100EAC00D3F900BF1037BD4680BD00BFFC00002049
:100EBC0080B500AF3320FFF79BFF3220FFF798FF80
:100ECC00322000F075FD2820FFF792FF322000F051
:100EDC006FFD0120FFF78CFF322000F069FD06202A
:100EEC00FFF786FF322000F063FD0C20FFF780FF38
:100EFC00322000F05DFD0220FFF77AFF322000F077
:100F0C0057FD8020FFF774FF00BF80BD80B582B015
:100F1C0000AF786006E07B685A1C7A601B78184634
:100F2C00FFF796FF7B681B78002BF4D100BF00BF46
:100F3C000837BD4680BD80B500AF0120FFF758FFD4
:100F4C0000BF80BD80B584B000AF786039607B682D
:100F5C00012B08D17B68DAB23B68DBB21344DBB2FD
:100F6C007F33FB7308E03B68DBB24033DBB25BB230
:100F7C0063F07F035BB2FB73FB7B1846FFF738FF14
:100F8C0000BF1037BD4680BD80B588B000AFF8609B
:100F9C00B9607A6007F114037A680849184602F0C0
:100FAC00BBFDB968F868FFF7CDFF07F114031846CD
:100FBC00FFF7ACFF00BF2037BD4680BD00440008E2
:100FCC0080B500AF00220821154800F0BEFF0022BA
:100FDC002021134800F0B9FF00221021104800F026
:100FEC00B4FF00224FF480610D4800F0AEFF0022E8
:100FFC004FF480710B4800F0A8FF00224FF40071F1
:10100C00084800F0A2FF00228021074800F09DFF55
:10101C0000224021024800F098FF00BF80BD00BFB5
:10102C00000C0140000801400010014080B500AFE9
:10103C0001220821154800F088FF012220211348C5
:10104C0000F083FF01221021104800F07EFF0122E6
:10105C004FF480610D4800F078FF01224FF480714D
:10106C000B4800F072FF00224FF40071084800F0AA
:10107C006CFF01228021074800F067FF002240210D
:10108C00024800F062FF00BF80BD00BF000C0140B1
:10109C00000801400010014080B500AF012208217A
:1010AC00154800F052FF01222021134800F04DFF9B
:1010BC0001221021104800F048FF01224FF48061FA
:1010CC000D4800F042FF00224FF480710B4800F0F5
:1010DC003CFF01224FF40071084800F036FF00225B
:1010EC008021074800F031FF01224021024800F026
:1010FC002CFF00BF80BD00BF000C01400008014068
:10110C000010014080B500AF01220821154800F005
:10111C001CFF00222021134800F017FF0122102190
:10112C00104800F012FF00224FF480610D4800F0CF
:10113C000CFF01224FF480710B4800F006FF0122D6
:10114C004FF40071084800F000FF0122802107488D
:10115C0000F0FBFE01224021024800F0F6FE00BF29
:10116C0080BD00BF000C0140000801400010014090
:10117C0080B500AF00220821154800F0E6FE0122E0
:10118C002021134800F0E1FE00221021104800F04D
:10119C00DCFE01224FF480610D4800F0D6FE0122E6
:1011AC004FF480710B4800F0D0FE01224FF4007117
:1011BC00084800F0CAFE01228021074800F0C5FE55
:1011CC0001224021024800F0C0FE00BF80BD00BFDC
:1011DC00000C0140000801400010014080B500AF38
:1011EC0000F084FB00F016F800F0F8F800F0CCF8F2
:1011FC0000F050F800F07CF8FFF75AFE044801F0BC
:10120C00D9FFFFF75BF9FFF779FAFFF7C7FDF8E7AE
:10121C005001002080B590B000AF07F118032822D0
:10122C000021184602F070FC3B1D00221A605A6027
:10123C009A60DA601A610223BB610123BB6210233E
:10124C00FB6202237B630023BB630023FB6307F178
:10125C001803184601F050FB0346002B01D000F098
:10126C006FF90F237B600223BB600023FB604FF4FC
:10127C0080633B6100237B613B1D0021184601F01C
:10128C00BBFD0346002B01D000F05AF900BF4037DC
:10129C00BD4680BD80B500AF124B134A1A60114B8E
:1012AC00124A5A600F4B00229A600E4B0022DA60F1
:1012BC000C4B4FF480421A610A4B00225A61094BC5
:1012CC0000229A61074B0022DA61064B00221A6257
:1012DC00044800F075FE0346002B01D000F030F9F5
:1012EC0000BF80BDFC00002000540040A08601001F
:1012FC0080B586B000AF07F1080300221A605A606F
:10130C009A60DA603B4600221A605A601D4B4FF01F
:10131C0080421A601B4B41F63F725A60194B0022F7
:10132C009A60184B0922DA60164B00221A61154B91
:10133C0000229A61134801F0EDFE0346002B01D008
:10134C0000F0FEF84FF48053BB6007F10803194618
:10135C000C4802F071F80346002B01D000F0F0F8B5
:10136C0000233B6000237B603B461946054802F096
:10137C0053FA0346002B01D000F0E2F800BF1837F7
:10138C00BD4680BD5001002080B500AF114B124A04
:10139C001A60104B4FF4E1325A600E4B00229A60E7
:1013AC000C4B0022DA600B4B00221A61094B0C2209
:1013BC005A61084B00229A61064B0022DA610548FB
:1013CC0002F09AFA0346002B01D000F0B9F800BFE6
:1013DC0080BD00BF980100200044004080B588B05B
:1013EC0000AF07F1100300221A605A609A60DA60AD
:1013FC00484B9B69474A43F010039361454B9B69EB
:10140C0003F01003FB60FB68424B9B69414A43F0BD
:10141C00200393613F4B9B6903F02003BB60BB68C7
:10142C003C4B9B693B4A43F004039361394B9B69EA
:10143C0003F004037B607B68364B9B69354A43F0B1
:10144C0008039361334B9B6903F008033B603B68D3
:10145C0000224FF44C71304800F077FD00224FF41D
:10146C008F612E4800F071FD002280212C4800F085
:10147C006CFD4FF400533B612A4B7B610023BB6135
:10148C0007F110031946264800F0C4FB03233B6107
:10149C0000237B610123BB6107F1100319461E4831
:1014AC0000F0B8FB4FF44C733B6101237B610023CC
:1014BC00BB610223FB6107F110031946164800F0CB
:1014CC00A9FB4FF48F633B6101237B610023BB615C
:1014DC000223FB6107F110031946104800F09AFB38
:1014EC0080233B6101237B610023BB610223FB61F1
:1014FC0007F1100319460A4800F08CFB002200216A
:10150C00282000F050FB282000F069FB00BF20379A
:10151C00BD4680BD0010024000080140000C014097
:10152C00001001400000111080B582B000AF78604F
:10153C0000F02CF8FEF7A4FE00BF0837BD4680BDB6
:10154C0080B400AF72B600BFFEE7000080B483B079
:10155C0000AF786039600A4A7B68002142F823109A
:10156C003B68084A82FB03129210DB17D21A064919
:10157C007B6841F8232000BF0C37BD4680BC704708
:10158C000802002067666666E001002080B483B024
:10159C0000AF00237B601CE0124A7B6852F82330BA
:1015AC00002B13DD0F4A7B6852F823305A1E0D496D
:1015BC007B6841F823200B4A7B6852F82330002BC0
:1015CC0004DC094A7B68012142F823107B68013353
:1015DC007B607B68092BDFDD00BF00BF0C37BD468D
:1015EC0080BC7047E00100200802002080B485B068
:1015FC0000AF154B9B69144A43F001039361124BE6
:10160C009B6903F00103BB60BB680F4BDB690E4A9F
:10161C0043F08053D3610C4BDB6903F080537B6048
:10162C007B680A4B5B68FB60FB6823F0E063FB6044
:10163C00FB6843F00073FB60044AFB68536000BF17
:10164C001437BD4680BC70470010024000000140BA
:10165C0080B58AB000AF786007F1140300221A60DD
:10166C005A609A60DA607B681B681D4A934232D1DB
:10167C001C4B9B691B4A43F008039361194B9B69F4
:10168C0003F008033B613B694FF440737B61122309
:10169C00BB6103233B6207F114031946124800F0A7
:1016AC00B9FA124B5B687B627B6A43F0E0637B6246
:1016BC007B6A43F002037B620C4A7B6A5360094BE2
:1016CC00DB69084A43F40013D361064BDB6903F46E
:1016DC000013FB60FB6800BF2837BD4680BD00BF10
:1016EC000054004000100240000C0140000001407A
:1016FC0080B584B000AF78607B681B68B3F1804F15
:10170C0013D10C4BDB690B4A43F00103D361094B3A
:10171C00DB6903F00103FB60FB68002200211C2045
:10172C0000F041FA1C2000F05AFA00BF1037BD46F9
:10173C0080BD00BF0010024080B588B000AF78605B
:10174C0007F1100300221A605A609A60DA607B6815
:10175C001B68154A934223D1144BDB69134A43F49B
:10176C000033D361114BDB6903F40033FB60FB687E
:10177C000E4B9B690D4A43F0040393610B4B9B6921
:10178C0003F00403BB60BB680C233B6102237B6149
:10179C000223FB6107F110031946054800F03AFAE1
:1017AC0000BF2037BD4680BD004400400010024001
:1017BC000008014080B400AFFEE780B400AFFEE744
:1017CC0080B400AFFEE780B400AFFEE780B400AF9A
:1017DC00FEE780B400AF00BFBD4680BC704780B44C
:1017EC0000AF00BFBD4680BC704780B400AF00BFE7
:1017FC00BD4680BC704780B500AF00F0BDF800BF9F
:10180C0080BD000080B500AF024801F025FD00BF8F
:10181C0080BD00BF5001002080B500AF4FF40050D8
:10182C0000F0ACFB00BF80BD80B586B000AF786027
:10183C00144A154BD31A7B617B693B61134B1B68B4
:10184C00002B02D1114B124A1A60104B1A687B689C
:10185C0013443A699A4207D202F02CF903460C223F
:10186C001A604FF0FF3309E0084B1B68FB60074B15
:10187C001A687B681344054A1360FB6818461837CE
:10188C00BD4680BD0050002000040000F000002088
:10189C004802002080B400AF00BFBD4680BC70473A
:1018AC00FFF7F8FF0B480C490C4A002302E0D45810
:1018BC00C4500433C4188C42F9D3094A094C002390
:1018CC0001E013600432A242FBD302F0F9F8FFF7F7
:1018DC0085FC704700000020B00000207C4400080C
:1018EC00B000002044020020FEE7000080B500AFED
:1018FC00084B1B68074A43F010031360032000F0E9
:10190C0047F9002000F008F8FFF770FE0023184696
:10191C0080BD00BF0020024080B582B000AF78606F
:10192C00124B1A68124B1B7819464FF47A73B3FB9F
:10193C00F1F3B2FBF3F3184600F05FF90346002B0A
:10194C0001D001230EE07B680F2B0AD800227968A6
:10195C004FF0FF3000F027F9064A7B681360002334
:10196C0000E0012318460837BD4680BD400000202A
:10197C00480000204400002080B400AF054B1B78C9
:10198C001A46054B1B681344034A136000BFBD463F
:10199C0080BC7047480000203002002080B400AFAB
:1019AC00024B1B681846BD4680BC704730020020B5
:1019BC0080B584B000AF7860FFF7F0FFB8607B684B
:1019CC00FB60FB68B3F1FF3F05D00A4B1B781A464E
:1019DC00FB681344FB6000BFFFF7E0FF0246BB68E7
:1019EC00D31AFA689A42F7D800BF00BF1037BD4629
:1019FC0080BD00BF4800002080B485B000AF786087
:101A0C007B6803F00703FB600C4BDB68BB60BA68B8
:101A1C004FF6FF031340BB60FB681A02BB6813430D
:101A2C0043F0BF6343F40033BB60044ABB68D3602C
:101A3C0000BF1437BD4680BC704700BF00ED00E00E
:101A4C0080B400AF044BDB681B0A03F00703184695
:101A5C00BD4680BC704700BF00ED00E080B483B091
:101A6C0000AF0346FB7197F90730002B0BDBFB79BA
:101A7C0003F01F02064997F907305B09012000FAB1
:101A8C0002F241F8232000BF0C37BD4680BC7047E2
:101A9C0000E100E080B483B000AF03463960FB7115
:101AAC0097F90730002B0ADB3B68DAB20C4997F93F
:101ABC0007301201D2B20B4483F800230AE03B68D2
:101ACC00DAB20849FB7903F00F03043B1201D2B2DE
:101ADC000B441A7600BF0C37BD4680BC704700BF64
:101AEC0000E100E000ED00E080B489B000AFF860E8
:101AFC00B9607A60FB6803F00703FB61FB69C3F113
:101B0C000703042B28BF0423BB61FB690433062B9A
:101B1C0002D9FB69033B00E000237B614FF0FF32ED
:101B2C00BB6902FA03F3DA43BB681A407B699A403B
:101B3C004FF0FF317B6901FA03F3D9437B680B400B
:101B4C00134318462437BD4680BC704780B582B01D
:101B5C0000AF78607B68013BB3F1807F01D3012338
:101B6C000FE00A4A7B68013B53600F214FF0FF30B6
:101B7C00FFF790FF054B00229A60044B07221A6076
:101B8C00002318460837BD4680BD00BF10E000E0BA
:101B9C0080B582B000AF78607868FFF72DFF00BF8A
:101BAC000837BD4680BD80B586B000AF0346B9602E
:101BBC007A60FB7300237B61FFF742FF78617A68E0
:101BCC00B9687869FFF790FF024697F90F30114614
:101BDC001846FFF75FFF00BF1837BD4680BD80B5C4
:101BEC0082B000AF0346FB7197F907301846FFF738
:101BFC0035FF00BF0837BD4680BD80B582B000AF51
:101C0C0078607868FFF7A2FF034618460837BD4690
:101C1C0080BD000080B48BB000AF786039600023C9
:101C2C007B6200233B6269E101227B6A02FA03F3C7
:101C3C00FB613B681B68FA691340BB61BA69FB69BD
:101C4C009A4240F058813B685B689A4A93425ED056
:101C5C00984A934275D8984A934258D0964A9342E0
:101C6C006FD8964A934252D0944A934269D8944A78
:101C7C0093424CD0924A934263D8924A934246D0B4
:101C8C00904A93425DD8122B2AD8122B59D801A214
:101C9C0052F823F01B1D0008F51C0008071D000856
:101CAC00491D00084F1D00084F1D00084F1D00085E
:101CBC004F1D00084F1D00084F1D00084F1D000848
:101CCC004F1D00084F1D00084F1D00084F1D000838
:101CDC004F1D00084F1D0008FD1C0008111D0008B9
:101CEC00794A934213D02CE03B68DB683B6229E0D5
:101CFC003B68DB6804333B6224E03B68DB680833F9
:101D0C003B621FE03B68DB680C333B621AE03B68CC
:101D1C009B68002B02D104233B6213E03B689B6859
:101D2C00012B05D108233B627B68FA691A6109E033
:101D3C0008233B627B68FA695A6103E000233B622B
:101D4C0000E000BFBB69FF2B01D87B6801E07B681A
:101D5C0004337B61BB69FF2B02D87B6A9B0002E0DA
:101D6C007B6A083B9B003B617B691A680F213B69CE
:101D7C0001FA03F3DB431A40396A3B6901FA03F3B6
:101D8C001A437B691A603B685B6803F08053002B35
:101D9C0000F0B1804D4B9B694C4A43F001039361B9
:101DAC004A4B9B6903F00103BB60BB68484A7B6AE2
:101DBC009B08023352F82330FB607B6A03F0030369
:101DCC009B000F2202FA03F3DB43FA681340FB601B
:101DDC007B68404A934213D07B683F4A93420DD0B4
:101DEC007B683E4A934207D07B683D4A934201D1BF
:101DFC00032306E0042304E0022302E0012300E0B5
:101E0C0000237A6A02F0030292009340FA681343AB
:101E1C00FB602F497B6A9B080233FA6841F8232048
:101E2C003B685B6803F48013002B06D02D4B9A683B
:101E3C002C49BB6913438B6006E02A4B9A68BB693B
:101E4C00DB43284913408B603B685B6803F4001349
:101E5C00002B06D0234BDA682249BB691343CB60B5
:101E6C0006E0204BDA68BB69DB431E491340CB60AC
:101E7C003B685B6803F40033002B06D0194B5A689F
:101E8C001849BB6913434B6006E0164B5A68BB6993
:101E9C00DB43144913404B603B685B6803F48033AD
:101EAC00002B21D00F4B1A680E49BB6913430B60F2
:101EBC0021E000BF000032100000311000002210A1
:101ECC000000211000001210000011100010024040
:101EDC000000014000080140000C014000100140CE
:101EEC0000140140000401400B4B1A68BB69DB4332
:101EFC00094913400B607B6A01337B623B681A68AB
:101F0C007B6A22FA03F3002B7FF48EAE00BF00BF76
:101F1C002C37BD4680BC70470004014080B485B0AE
:101F2C0000AF78600B467B807B689A687B88134097
:101F3C00002B02D00123FB7301E00023FB73FB7B1E
:101F4C0018461437BD4680BC704780B483B000AFD0
:101F5C0078600B467B8013467B707B78002B03D01C
:101F6C007A887B681A6103E07B881A047B681A61A3
:101F7C0000BF0C37BD4680BC7047000080B582B0F6
:101F8C0000AF0346FB80084B5A69FB881340002BBB
:101F9C0006D0054AFB885361FB88184600F006F80A
:101FAC0000BF0837BD4680BD0004014080B483B03B
:101FBC0000AF0346FB8000BF0C37BD4680BC7047AA
:101FCC0080B584B000AF78607B68002B01D1012311
:101FDC002BE17B6893F83D30DBB2002B06D17B689C
:101FEC00002283F83C207868FFF732FB7B682422C0
:101FFC0083F83D207B681B681A687B681B6822F09D
:10200C0001021A607B681B681A687B681B6842F4C3
:10201C0000421A607B681B681A687B681B6822F494
:10202C0000421A6001F030F8F8607B685B68814A06
:10203C00934207D8FB68804A934294BF0123002344
:10204C00DBB206E0FB687D4A934294BF0123002378
:10205C00DBB2002B01D00123E7E0FB68784AA2FB3E
:10206C0003239B0CBB607B681B685B6823F03F0100
:10207C007B681B68BA680A435A607B681B681B6ADA
:10208C0023F03F017B685B686A4A934202D8BB68C5
:10209C00013309E0BB684FF4967202FB03F3694A03
:1020AC00A2FB03239B0901337A6812680B4313626A
:1020BC007B681B68DB6923F44F4222F0FF027B68CC
:1020CC005B685C498B4219D8FB68591E7B685B685E
:1020DC005B00B1FBF3F3591C40F6FC730B40002B77
:1020EC000AD0FB68591E7B685B685B00B1FBF3F39D
:1020FC000133C3F30B0351E004234FE07B689B686F
:10210C00002B11D1FB68581E7B6859680B465B008D
:10211C000B44B0FBF3F30133C3F30B03002B0CBFE5
:10212C0001230023DBB212E0FB68581E7B68596860
:10213C000B469B000B4499000B44B0FBF3F30133AB
:10214C00C3F30B03002B0CBF01230023DBB2002BCA
:10215C0001D0012322E07B689B68002B0ED1FB6829
:10216C00581E7B6859680B465B000B44B0FBF3F3BD
:10217C000133C3F30B0343F400430FE0FB68581E19
:10218C007B6859680B469B000B4499000B44B0FBD1
:10219C00F3F30133C3F30B0343F440437968096849
:1021AC001343CB617B681B681B6823F0C0017B6801
:1021BC00DA697B681B6A1A437B681B680A431A60DE
:1021CC007B681B689B6823F4034323F0FF037A6846
:1021DC0011697A68D26811437A6812680B4393606C
:1021EC007B681B68DB6823F0FF017B685A697B689E
:1021FC009B691A437B681B680A43DA607B681B681F
:10220C001A687B681B6842F001021A607B68002226
:10221C001A647B68202283F83D207B6800221A63B5
:10222C007B68002283F83E20002318461037BD46F9
:10223C0080BD00BFA08601007F841E00FF083D000A
:10224C0083DE1B43D34D621080B588B002AFF860BB
:10225C007A601A460B467B8113463B81FFF79EFB47
:10226C007861FB6893F83D30DBB2202B40F0E080C6
:10227C007B690093192301227049F86800F064F916
:10228C000346002B01D00223D3E0FB6893F83C30CB
:10229C00012B01D10223CCE0FB68012283F83C2006
:1022AC00FB681B681B6803F00103012B07D0FB685C
:1022BC001B681A68FB681B6842F001021A60FB6815
:1022CC001B681A68FB681B6822F400621A60FB68C2
:1022DC00212283F83D20FB68102283F83E20FB6806
:1022EC0000221A64FB687A685A62FB683A895A853C
:1022FC00FB685B8D9AB2FB681A85FB68504ADA6200
:10230C0079897B693A6AF86800F09CF80346002BDF
:10231C0001D001238DE000233B61FB681B685B69E6
:10232C003B61FB681B689B693B613B6966E07A69B2
:10233C00396AF86800F022FA0346002B0DD0FB68CE
:10234C001B6C042B07D1FB681B681A68FB681B68A5
:10235C0042F400721A6001236BE0FB685B6A1A7826
:10236C00FB681B681A61FB685B6A5A1CFB685A6243
:10237C00FB685B8D9BB2013B9AB2FB685A85FB688C
:10238C001B8D013B9AB2FB681A85FB681B685B6965
:10239C0003F00403042B1BD1FB681B8D002B17D0FF
:1023AC00FB685B6A1A78FB681B681A61FB685B6ADE
:1023BC005A1CFB685A62FB685B8D9BB2013B9AB25C
:1023CC00FB685A85FB681B8D013B9AB2FB681A852A
:1023DC007A69396AF86800F019FA0346002B0DD0B7
:1023EC00FB681B6C042B07D1FB681B681A68FB6825
:1023FC001B6842F400721A6001231AE0FB681B8D03
:10240C00002B94D1FB681B681A68FB681B6842F4AC
:10241C0000721A60FB68202283F83D20FB680022C2
:10242C0083F83E20FB68002283F83C20002300E068
:10243C00022318461837BD4680BD00BF02001000AD
:10244C000000FFFF80B588B002AFF8607A603B6097
:10245C000B467B81FB68DB6A7B617B69082B06D0B2
:10246C007B69012B03D07B6913F5803F08D1FB6896
:10247C001B681A68FB681B6842F480721A600BE0D8
:10248C00FB681B6B122B07D1FB681B681A68FB6877
:10249C001B6842F480721A603B6800937B680022D0
:1024AC004FF00111F86800F04FF80346002B0DD0E7
:1024BC00FB681B681B6803F48073B3F5807F03D142
:1024CC00FB684FF400721A64032335E0FB681B6948
:1024DC00B3F5804F08D17B89DBB21A46FB681B68C9
:1024EC0002F0FE021A611BE07B89DB11DBB203F008
:1024FC000603DBB263F00F03DAB2FB681B681A61E8
:10250C003B687A680E49F86800F098F80346002B8F
:10251C0001D0012310E07B89DAB2FB681B681A61D9
:10252C003B687A680749F86800F088F80346002B86
:10253C0001D0012300E0002318461837BD4680BDAA
:10254C00080001000200010080B584B000AFF86003
:10255C00B9603B601346FB7148E03B68B3F1FF3F49
:10256C0044D0FFF71BFA0246BB69D31A3A689A4269
:10257C0002D33B68002B39D1BB681B0CDBB2012B9F
:10258C000DD1FB681B685B69DA43BB6813409BB2D7
:10259C00002B0CBF01230023DBB21A460CE0FB68B6
:1025AC001B689B69DA43BB6813409BB2002B0CBFC2
:1025BC0001230023DBB21A46FB799A4216D1FB6841
:1025CC0000221A63FB68202283F83D20FB6800225E
:1025DC0083F83E20FB681B6C43F02002FB681A64F6
:1025EC00FB68002283F83C20012323E0BB681B0C12
:1025FC00DBB2012B0DD1FB681B685B69DA43BB684E
:10260C0013409BB2002B0CBF01230023DBB21A46F4
:10261C000CE0FB681B689B69DA43BB6813409BB2F8
:10262C00002B0CBF01230023DBB21A46FB799A4224
:10263C0093D0002318461037BD4680BD80B584B0BA
:10264C0000AFF860B9607A603B6071E0FB681B68B2
:10265C005B6903F48063B3F5806F23D1FB681B685F
:10266C001A68FB681B6842F400721A60FB681B68EE
:10267C006FF480625A61FB6800221A63FB682022A7
:10268C0083F83D20FB68002283F83E20FB681B6C1E
:10269C0043F00402FB681A64FB68002283F83C20B8
:1026AC00012367E07B68B3F1FF3F41D0FFF776F978
:1026BC0002463B68D31A7A689A4202D37B68002B95
:1026CC0036D1BB681B0CDBB2012B0CD1FB681B6831
:1026DC005B69DA43BB6813409BB2002B14BF012328
:1026EC000023DBB20BE0FB681B689B69DA43BB6819
:1026FC0013409BB2002B14BF01230023DBB2002B31
:10270C0016D0FB6800221A63FB68202283F83D2058
:10271C00FB68002283F83E20FB681B6C43F0200210
:10272C00FB681A64FB68002283F83C20012321E03B
:10273C00BB681B0CDBB2012B0CD1FB681B685B6903
:10274C00DA43BB6813409BB2002B14BF0123002358
:10275C00DBB20BE0FB681B689B69DA43BB68134078
:10276C009BB2002B14BF01230023DBB2002B7FF4A0
:10277C006DAF002318461037BD4680BD80B584B0C0
:10278C0000AFF860B9607A6034E0F86800F086F861
:10279C000346002B01D0012334E0BB68B3F1FF3FAB
:1027AC0028D0FFF7FBF802467B68D31ABA689A4226
:1027BC0002D3BB68002B1DD1FB681B685B6903F05F
:1027CC008003802B16D0FB6800221A63FB68202242
:1027DC0083F83D20FB68002283F83E20FB681B6CCD
:1027EC0043F02002FB681A64FB68002283F83C204B
:1027FC00012307E0FB681B685B6903F08003802BF7
:10280C00C3D1002318461037BD4680BD80B584B0B7
:10281C0000AFF860B9607A6034E0F86800F03EF818
:10282C000346002B01D0012334E0BB68B3F1FF3F1A
:10283C0028D0FFF7B3F802467B68D31ABA689A42DD
:10284C0002D3BB68002B1DD1FB681B685B6903F0CE
:10285C000403042B16D0FB6800221A63FB682022A9
:10286C0083F83D20FB68002283F83E20FB681B6C3C
:10287C0043F02002FB681A64FB68002283F83C20BA
:10288C00012307E0FB681B685B6903F00403042B5E
:10289C00C3D1002318461037BD4680BD80B483B029
:1028AC0000AF78607B681B685B6903F48063B3F5E9
:1028BC00806F1BD17B681B686FF480625A617B68E8
:1028CC0000221A637B68202283F83D207B6800225B
:1028DC0083F83E207B681B6C43F004027B681A640F
:1028EC007B68002283F83C20012300E0002318467B
:1028FC000C37BD4680BC704780B586B000AF7860A1
:10290C007B68002B01D101236CE27B681B6803F010
:10291C000103002B00F08780924B5B6803F00C03E3
:10292C00042B0CD08F4B5B6803F00C03082B12D1DB
:10293C008C4B5B6803F48033B3F5803F0BD1894B30
:10294C001B6803F40033002B6CD07B685B68002B96
:10295C0068D1012346E27B685B68B3F5803F06D102
:10296C00804B1B687F4A43F4803313602EE07B68F6
:10297C005B68002B0CD17B4B1B687A4A23F48033A9
:10298C001360784B1B68774A23F4802313601DE097
:10299C007B685B68B3F5A02F0CD1724B1B68714A36
:1029AC0043F4802313606F4B1B686E4A43F48033EF
:1029BC0013600BE06B4B1B686A4A23F48033136083
:1029CC00684B1B68674A23F4802313607B685B6841
:1029DC00002B13D0FEF7E2FF386108E0FEF7DEFFB4
:1029EC0002463B69D31A642B01D90323FAE15D4BF0
:1029FC001B6803F40033002BF0D014E0FEF7CEFF7D
:102A0C00386108E0FEF7CAFF02463B69D31A642B13
:102A1C0001D90323E6E1534B1B6803F40033002B6D
:102A2C00F0D100E000BF7B681B6803F00203002BB1
:102A3C0063D04C4B5B6803F00C03002B0BD0494B61
:102A4C005B6803F00C03082B1CD1464B5B6803F44A
:102A5C008033002B16D1434B1B6803F00203002B71
:102A6C0005D07B681B69012B01D00123BAE13D4BDA
:102A7C001B6823F0F8027B685B69DB003949134360
:102A8C000B603AE07B681B69002B20D0364B01228F
:102A9C001A60FEF783FF386108E0FEF77FFF0246FD
:102AAC003B69D31A022B01D903239BE12D4B1B68E5
:102ABC0003F00203002BF0D02A4B1B6823F0F80222
:102ACC007B685B69DB00274913430B6015E0264BE1
:102ADC0000221A60FEF762FF386108E0FEF75EFF25
:102AEC0002463B69D31A022B01D903237AE11D4B11
:102AFC001B6803F00203002BF0D17B681B6803F00A
:102B0C000803002B3AD07B689B69002B19D0174B1C
:102B1C0001221A60FEF742FF386108E0FEF73EFF23
:102B2C0002463B69D31A022B01D903235AE10D4B00
:102B3C005B6A03F00203002BF0D0012000F0CCFA0A
:102B4C001CE00A4B00221A60FEF728FF38610FE0E8
:102B5C00FEF724FF02463B69D31A022B08D9032344
:102B6C0040E100BF0010024000004242800442429B
:102B7C009E4B5B6A03F00203002BE9D17B681B6858
:102B8C0003F00403002B00F0A6800023FB75974B89
:102B9C00DB6903F08053002B0DD1944BDB69934A16
:102BAC0043F08053D361914BDB6903F08053BB60DE
:102BBC00BB680123FB758E4B1B6803F48073002BE1
:102BCC0018D18B4B1B688A4A43F480731360FEF751
:102BDC00E5FE386108E0FEF7E1FE02463B69D31AD8
:102BEC00642B01D90323FDE0814B1B6803F4807334
:102BFC00002BF0D07B68DB68012B06D17B4B1B6A6A
:102C0C007A4A43F0010313622DE07B68DB68002BEA
:102C1C000CD1764B1B6A754A23F001031362734B7C
:102C2C001B6A724A23F0040313621CE07B68DB68A6
:102C3C00052B0CD16D4B1B6A6C4A43F004031362D9
:102C4C006A4B1B6A694A43F0010313620BE0674B42
:102C5C001B6A664A23F001031362644B1B6A634AC6
:102C6C0023F0040313627B68DB68002B15D0FEF79E
:102C7C0095FE38610AE0FEF791FE02463B69D31AD5
:102C8C0041F28832934201D90323ABE0574B1B6AC4
:102C9C0003F00203002BEED014E0FEF77FFE386148
:102CAC000AE0FEF77BFE02463B69D31A41F28832FA
:102CBC00934201D9032395E04C4B1B6A03F00203AA
:102CCC00002BEED1FB7D012B05D1484BDB69474A2C
:102CDC0023F08053D3617B68DB69002B00F081808B
:102CEC00424B5B6803F00C03082B61D07B68DB69FB
:102CFC00022B46D13F4B00221A60FEF74FFE386183
:102D0C0008E0FEF74BFE02463B69D31A022B01D9B1
:102D1C00032367E0354B1B6803F00073002BF0D1E5
:102D2C007B681B6AB3F5803F08D1304B5B6823F49A
:102D3C0000327B689B682D4913434B602B4B5B68BF
:102D4C0023F474127B68196A7B685B6A0B4327490E
:102D5C0013434B60274B01221A60FEF71FFE3861AC
:102D6C0008E0FEF71BFE02463B69D31A022B01D981
:102D7C00032337E01D4B1B6803F00073002BF0D0CE
:102D8C002FE01C4B00221A60FEF708FE386108E0A9
:102D9C00FEF704FE02463B69D31A022B01D903232A
:102DAC0020E0124B1B6803F00073002BF0D118E0ED
:102DBC007B68DB69012B01D1012313E00B4B5B68B2
:102DCC00FB60FB6803F480327B681B6A9A4206D175
:102DDC00FB6803F470127B685B6A9A4201D0012392
:102DEC0000E0002318461837BD4680BD0010024095
:102DFC00007000406000424280B584B000AF786043
:102E0C0039607B68002B01D10123D0E06A4B1B6831
:102E1C0003F007033A689A4210D9674B1B6823F0FA
:102E2C00070265493B6813430B60634B1B6803F057
:102E3C0007033A689A4201D00123B8E07B681B680B
:102E4C0003F00203002B20D07B681B6803F0040303
:102E5C00002B05D0594B5B68584A43F4E063536030
:102E6C007B681B6803F00803002B05D0534B5B6891
:102E7C00524A43F460535360504B5B6823F0F002AA
:102E8C007B689B684D4913434B607B681B6803F060
:102E9C000103002B40D07B685B68012B07D1474BAB
:102EAC001B6803F40033002B15D101237FE07B68F2
:102EBC005B68022B07D1414B1B6803F00073002B9E
:102ECC0009D1012373E03D4B1B6803F00203002B77
:102EDC0001D101236BE0394B5B6823F003027B6863
:102EEC005B68364913434B60FEF758FDF8600AE007
:102EFC00FEF754FD0246FB68D31A41F28832934226
:102F0C0001D9032353E02D4B5B6803F00C027B6863
:102F1C005B689B009A42EBD1274B1B6803F00703BD
:102F2C003A689A4210D2244B1B6823F007022249BC
:102F3C003B6813430B60204B1B6803F007033A6894
:102F4C009A4201D0012332E07B681B6803F0040332
:102F5C00002B08D0194B5B6823F4E0627B68DB68BC
:102F6C00164913434B607B681B6803F00803002B66
:102F7C0009D0124B5B6823F460527B681B69DB0041
:102F8C000E4913434B6000F021F802460B4B5B6873
:102F9C001B0903F00F030A49CB5C22FA03F3094A1D
:102FAC001360094B1B681846FEF7B6FC0023184645
:102FBC001037BD4680BD00BF00200240001002400B
:102FCC0014440008400000204400002080B487B066
:102FDC0000AF0023FB600023BB6000237B61002358
:102FEC007B6000233B611E4B5B68FB60FB6803F05E
:102FFC000C03042B02D0082B03D027E0194B3B61A8
:10300C0027E0FB689B0C03F00F03174AD35C7B6033
:10301C00FB6803F48033002B10D0114B5B685B0C06
:10302C0003F00103114AD35CBB607B680D4A02FBC1
:10303C0003F2BB68B2FBF3F37B6104E07B680C4AE0
:10304C0002FB03F37B617B693B6102E0054B3B6157
:10305C0000BF3B6918461C37BD4680BC704700BF9B
:10306C000010024000127A002C4400083C44000876
:10307C0000093D0080B400AF024B1B681846BD46EA
:10308C0080BC70474000002080B500AFFFF7F2FF16
:10309C000246054B5B681B0A03F007030349CB5C34
:1030AC0022FA03F3184680BD0010024024440008A5
:1030BC0080B500AFFFF7DEFF0246054B5B68DB0A0D
:1030CC0003F007030349CB5C22FA03F3184680BDD7
:1030DC00001002402444000880B485B000AF786032
:1030EC000A4B1B680A4AA2FB03235B0A7A6802FBA1
:1030FC0003F3FB6000BFFB685A1EFA60002BF9D18A
:10310C0000BF00BF1437BD4680BC70474000002094
:10311C00D34D621080B582B000AF78607B68002B15
:10312C0001D1012341E07B6893F83D30DBB2002BE9
:10313C0006D17B68002283F83C207868FEF7D8FA29
:10314C007B68022283F83D207B681A687B68043315
:10315C001946104600F05CFA7B68012283F8462081
:10316C007B68012283F83E207B68012283F83F2094
:10317C007B68012283F840207B68012283F8412080
:10318C007B68012283F842207B68012283F843206C
:10319C007B68012283F844207B68012283F8452058
:1031AC007B68012283F83D20002318460837BD4672
:1031BC0080BD000080B485B000AF78607B6893F868
:1031CC003D30DBB2012B01D001233AE07B680222B7
:1031DC0083F83D207B681B68DA687B681B6842F0CB
:1031EC000102DA607B681B68184A93420ED07B6838
:1031FC001B68B3F1804F09D07B681B68144A93425B
:10320C0004D07B681B68134A934211D17B681B68FE
:10321C009B6803F00703FB60FB68062B10D07B68F0
:10322C001B681A687B681B6842F001021A6007E091
:10323C007B681B681A687B681B6842F001021A6085
:10324C00002318461437BD4680BC7047002C014043
:10325C00000400400008004080B584B000AF7860E6
:10326C007B681B68DB68FB607B681B681B69BB6049
:10327C00BB6803F00203002B20D0FB6803F00203B1
:10328C00002B1BD07B681B686FF002021A617B68F5
:10329C0001221A777B681B689B6903F00303002BE0
:1032AC0003D0786800F098F905E0786800F08BF9A5
:1032BC00786800F09AF97B6800221A77BB6803F0F3
:1032CC000403002B20D0FB6803F00403002B1BD05D
:1032DC007B681B686FF004021A617B6802221A7704
:1032EC007B681B689B6903F44073002B03D07868E0
:1032FC0000F072F905E0786800F065F9786800F084
:10330C0074F97B6800221A77BB6803F00803002B62
:10331C0020D0FB6803F00803002B1BD07B681B68D4
:10332C006FF008021A617B6804221A777B681B68AD
:10333C00DB6903F00303002B03D0786800F04CF931
:10334C0005E0786800F03FF9786800F04EF97B688A
:10335C0000221A77BB6803F01003002B20D0FB6807
:10336C0003F01003002B1BD07B681B686FF010025E
:10337C001A617B6808221A777B681B68DB6903F487
:10338C004073002B03D0786800F026F905E07868CC
:10339C0000F019F9786800F028F97B6800221A7798
:1033AC00BB6803F00103002B0CD0FB6803F0010396
:1033BC00002B07D07B681B686FF001021A617868DC
:1033CC00FEF7B2F8BB6803F08003002B0CD0FB684F
:1033DC0003F08003002B07D07B681B686FF0800222
:1033EC001A61786800F07FFABB6803F04003002B89
:1033FC000CD0FB6803F04003002B07D07B681B68E4
:10340C006FF040021A61786800F0F8F8BB6803F0BE
:10341C002003002B0CD0FB6803F02003002B07D0FB
:10342C007B681B686FF020021A61786800F052FA12
:10343C0000BF1037BD4680BD80B584B000AF78604A
:10344C0039600023FB737B6893F83C30012B01D16E
:10345C000223B4E07B68012283F83C207B680222C3
:10346C0083F83D207B681B689B68BB60BB6823F0BE
:10347C007703BB60BB6823F47F43BB607B681B682E
:10348C00BA689A603B681B68B3F5005F3ED0B3F531
:10349C00005F00F28780B3F5805F00F08680B3F5A3
:1034AC00805F7FD8702B1AD0702B7BD8602B50D0BC
:1034BC00602B77D8502B3CD0502B73D8402B58D046
:1034CC00402B6FD8302B64D0302B6BD8202B60D096
:1034DC00202B67D8002B5CD0102B5AD062E07B6875
:1034EC0018683B6899683B685A683B68DB6800F071
:1034FC0074F97B681B689B68BB60BB6843F07703FF
:10350C00BB607B681B68BA689A604FE07B68186880
:10351C003B6899683B685A683B68DB6800F05DF96A
:10352C007B681B689A687B681B6842F480429A60CF
:10353C003CE07B6818683B6859683B68DB681A4656
:10354C0000F0D4F87B681B685021184600F02BF96A
:10355C002CE07B6818683B6859683B68DB681A4646
:10356C0000F0F2F87B681B686021184600F01BF92C
:10357C001CE07B6818683B6859683B68DB681A4636
:10358C0000F0B4F87B681B684021184600F00BF97A
:10359C000CE07B681A683B681B681946104600F003
:1035AC0002F903E00123FB7300E000BF7B680122FA
:1035BC0083F83D207B68002283F83C20FB7B184677
:1035CC001037BD4680BD80B483B000AF786000BFBB
:1035DC000C37BD4680BC704780B483B000AF7860B8
:1035EC0000BF0C37BD4680BC704780B483B000AFC1
:1035FC00786000BF0C37BD4680BC704780B483B088
:10360C0000AF786000BF0C37BD4680BC704700002F
:10361C0080B485B000AF786039607B681B68FB6054
:10362C007B682F4A93420BD07B68B3F1804F07D055
:10363C007B682C4A934203D07B682B4A934208D177
:10364C00FB6823F07003FB603B685B68FA6813430C
:10365C00FB607B68224A93420BD07B68B3F1804FAE
:10366C0007D07B681F4A934203D07B681E4A934263
:10367C0008D1FB6823F44073FB603B68DB68FA6895
:10368C001343FB60FB6823F080023B685B691343C8
:10369C00FB607B68FA681A603B689A687B68DA6240
:1036AC003B681A687B689A627B680D4A934203D127
:1036BC003B681A697B681A637B6801225A617B68D4
:1036CC001B6903F00103002B05D07B681B6923F0F9
:1036DC0001027B681A6100BF1437BD4680BC70477D
:1036EC00002C0140000400400008004080B487B06A
:1036FC0000AFF860B9607A60FB681B6A7B61FB689D
:10370C001B6A23F00102FB681A62FB689B693B6130
:10371C003B6923F0F0033B617B681B013A6913435F
:10372C003B617B6923F00A037B617A69BB681343B5
:10373C007B61FB683A699A61FB687A691A6200BF1F
:10374C001C37BD4680BC704780B487B000AFF860B2
:10375C00B9607A60FB681B6A7B61FB681B6A23F0AB
:10376C001002FB681A62FB689B693B613B6923F49E
:10377C0070433B617B681B033A6913433B617B6974
:10378C0023F0A0037B61BB681B017A6913437B6147
:10379C00FB683A699A61FB687A691A6200BF1C3748
:1037AC00BD4680BC704780B485B000AF786039608E
:1037BC007B689B68FB60FB6823F07003FB603A68D6
:1037CC00FB68134343F00703FB607B68FA689A605D
:1037DC0000BF1437BD4680BC704780B487B000AFC3
:1037EC00F860B9607A603B60FB689B687B617B69C1
:1037FC0023F47F437B613B681A027B681A43BB68E6
:10380C0013437A6913437B61FB687A699A6000BF42
:10381C001C37BD4680BC704780B485B000AF786063
:10382C0039607B6893F83C30012B01D1022346E0D0
:10383C007B68012283F83C207B68022283F83D20C0
:10384C007B681B685B68FB607B681B689B68BB6064
:10385C00FB6823F07003FB603B681B68FA6813433A
:10386C00FB607B681B68FA685A607B681B68164AA9
:10387C0093420ED07B681B68B3F1804F09D07B68F4
:10388C001B68124A934204D07B681B68104A93420F
:10389C000CD1BB6823F08003BB603B685B68BA68E3
:1038AC001343BB607B681B68BA689A607B68012213
:1038BC0083F83D207B68002283F83C2000231846C7
:1038CC001437BD4680BC7047002C014000040040FA
:1038DC000008004080B483B000AF786000BF0C37A4
:1038EC00BD4680BC704780B483B000AF786000BF29
:1038FC000C37BD4680BC704780B582B000AF786095
:10390C007B68002B01D1012342E07B6893F84130A6
:10391C00DBB2002B06D17B68002283F8402078684C
:10392C00FDF70AFF7B68242283F841207B681B6823
:10393C00DA687B681B6822F40052DA60786800F061
:10394C002BF87B681B681A697B681B6822F4904211
:10395C001A617B681B685A697B681B6822F02A0213
:10396C005A617B681B68DA687B681B6842F40052FA
:10397C00DA607B6800225A647B68202283F841203D
:10398C007B68202283F842207B6800225A63002344
:10399C0018460837BD4680BD80B584B000AF78604E
:1039AC007B681B681B6923F440517B68DA687B6871
:1039BC001B680A431A617B689A687B681B691A4307
:1039CC007B685B691343BB607B681B68DB6823F413
:1039DC00B05323F00C037A681268B9680B43D360B8
:1039EC007B681B685B6923F440717B689A697B6810
:1039FC001B680A435A617B681B682C4A934203D1AB
:103A0C00FFF756FBF86002E0FFF73EFBF860FA6840
:103A1C0013469B0013449A001A447B685B689B0016
:103A2C00B2FBF3F3224AA2FB03235B091901FA68E8
:103A3C0013469B0013449A001A447B685B689B00F6
:103A4C00B2FBF3F21A4BA3FB02035B09642000FBED
:103A5C0003F3D31A1B013233154AA2FB03235B0970
:103A6C0003F0F0031944FA6813469B0013449A00C0
:103A7C001A447B685B689B00B2FBF3F20C4BA3FB14
:103A8C0002035B09642000FB03F3D31A1B013233DE
:103A9C00074AA2FB03235B0903F00F027B681B6838
:103AAC000A449A6000BF1037BD4680BD0038014003
:103ABC001F85EB51014B1868704700BF4C0000206C
:103ACC0070B500260C4D0D4C641BA410A64209D1F8
:103ADC0000F05CFC00260A4D0A4C641BA410A642A4
:103AEC0005D170BD55F8043B98470136EEE755F803
:103AFC00043B98470136F2E774440008744400080C
:103B0C00744400087844000803460244934200D1F0
:103B1C00704703F8011BF9E70EB46FF0004100B5D4
:103B2C009CB01DAB0290069007910491084809497E
:103B3C0053F8042B0591006802A9019300F068F872
:103B4C000022029B1A701CB05DF804EB03B07047A6
:103B5C004C0000200802FFFF2DE9F0478E688246DA
:103B6C009E420C4690461F4638D88A8912F4906FB4
:103B7C0032D0256809690133A5EB010965694B440D
:103B8C0005EB450505EBD5756D109D4238BF1D46FF
:103B9C00530531D5294600F053FB064650B90C238A
:103BAC004FF0FF30CAF80030A38943F04003A381E3
:103BBC00BDE8F0874A46216900F0CEFAA38923F4C8
:103BCC00906343F08003A38126614E4426603E46F9
:103BDC006561A5EB0905A560BE4200D93E4632469B
:103BEC004146206800F0C6FAA36822689B1B324449
:103BFC000020A3602260DBE72A4600F07BFB064630
:103C0C000028E1D15046216900F0CEFAC7E7000048
:103C1C002DE9F04F98468B8907461B060D46144636
:103C2C009DB00ED50B6963B9402100F009FB2860EB
:103C3C00286120B90C233B604FF0FF30D1E04023CA
:103C4C006B610023099320238DF8293030234FF02A
:103C5C000109CDF80C80DFF8A4818DF82A302346B9
:103C6C009A4613F8012B0AB1252AF9D1BAEB040BA9
:103C7C000BD05B46224629463846FFF76DFF0130D4
:103C8C0000F0AA80099A5A4409929AF80030002B45
:103C9C0000F0A28000234FF0FF32CDE905230AF19A
:103CAC00010A049307938DF853301A935446052256
:103CBC0014F8011B514800F041FA049AD8B9D00607
:103CCC0044BF20238DF85330110744BF2B238DF8AC
:103CDC0053309AF800302A2B15D0544600204FF060
:103CEC000A0C079A214611F8013B303B092B4ED99F
:103CFC00B0B1079214E0A0EB080309FA03F31343E5
:103D0C00A2460493D2E7039B191D1B680391002B59
:103D1C00BBBF5B4242F0020207930793B8BF049209
:103D2C0023782E2B0CD163782A2B35D1039B0234AC
:103D3C001A1D1B680392002BB8BF4FF0FF3305937D
:103D4C00DFF8C8A003225046217800F0F7F940B103
:103D5C004023A0EB0A0003FA00F0049B0134034358
:103D6C00049314F8011B062225488DF8281000F046
:103D7C00E5F9002838D0234B1BBB039B073323F0FA
:103D8C00070308330393099B3344099367E70C46F5
:103D9C0001200CFB0232A5E700234FF00A0C194658
:103DAC0001340593204610F8012B303A092A03D927
:103DBC00002BC5D00591C3E7044601230CFB012160
:103DCC00F0E703AB00932A4638460F4B04A9AFF338
:103DDC000080421C0646D6D1AB895B063FF52CAF62
:103DEC0009981DB0BDE8F08F03AB00932A46384606
:103DFC00054B04A900F07CF8EBE700BF3E4400083B
:103E0C004844000800000000653B000844440008DA
:103E1C002DE9F047164699468A680B690746934286
:103E2C00B8BF1346336091F843200C46DDF8208070
:103E3C000AB1013333602368990642BF33680233F9
:103E4C003360256815F0060506D104F1190AE368FC
:103E5C0032689B1AAB4228DC94F84320131E22686C
:103E6C0018BF012392062DD44946384604F143026B
:103E7C00C047013020D02368E56803F00603042B0B
:103E8C0018BF002532684FF00006A36808BFAD1AB2
:103E9C00226908BF25EAE5759342C4BF9B1AED1849
:103EAC001A34B5421AD1002008E001235246494683
:103EBC003846C047013003D14FF0FF30BDE8F087E2
:103ECC000135C4E73020E11881F843005A1C94F8FE
:103EDC0045102244023382F84310C5E701232246E1
:103EEC0049463846C0470130E6D00136D9E70000D4
:103EFC002DE9FF470C46277E9146782F80469A463F
:103F0C000C9904F1430207D8622F0AD8002F00F055
:103F1C00D980582F00F0A48004F1420684F8427036
:103F2C003AE0A7F16303152BF6D801A050F823F063
:103F3C00953F0008A93F0008253F0008253F0008D1
:103F4C00253F0008253F0008A93F0008253F000831
:103F5C00253F0008253F0008253F0008B740000812
:103F6C00D93F000899400008253F0008253F00086C
:103F7C00D9400008253F0008D93F0008253F00081C
:103F8C00253F0008A14000080B6804F142061A1DE9
:103F9C001B680A6084F842300123A4E02568086895
:103FAC002E0600F104030AD505680B60002D03DA18
:103FBC002D236D4284F843300A235E4819E015F036
:103FCC00400F05680B6018BF2DB2EFE70B68256832
:103FDC00181D0860280601D51D6802E06906FBD58E
:103FEC001D886F2F0CBF08230A235248002184F828
:103FFC0043106668002EA8BF2168A660A4BF21F0FC
:10400C00040121600DB9002E4DD01646B5FBF3F11D
:10401C0003FB1157C75D06F8017D2F46BB420D46C9
:10402C00F4D9082B0BD12368DF0708D52369616805
:10403C009942DEBF302306F8013C06F1FF36921B95
:10404C0022614B4621464046CDF800A003AAFFF75B
:10405C00DFFE01304CD14FF0FF3004B0BDE8F087EB
:10406C00344884F845700E68236856F8045B1F06C4
:10407C000E6014D5D90744BF43F0200323601DB94B
:10408C00236823F0200323601023AFE7236843F059
:10409C00200323607823284884F84530E3E75E0644
:1040AC0048BFADB2E6E71646BBE70B6826681D1D98
:1040BC0060690D6035061B6801D5186002E0710659
:1040CC00FBD51880002316462361BAE70B681A1D2E
:1040DC000A601E6800213046626800F02FF808B1B3
:1040EC00801B606063682361002384F84330A8E779
:1040FC003246494640462369D0470130ABD023684D
:10410C009B0713D4E068039B9842B8BF1846A4E7FA
:10411C000123324649464046D04701309BD00135F9
:10412C00E36803995B1AAB42F2DCEBE7002504F180
:10413C001906F5E74F44000860440008034610B523
:10414C00C9B202449342184601D1002003E004781E
:10415C0001338C42F6D110BD0A44914200F1FF3379
:10416C0000D1704710B511F8014B914203F8014F83
:10417C00F9D110BD884210B501EB020402D984427A
:10418C00234607D8431EA14208D011F8012B03F88F
:10419C00012FF8E7014602448A4200D110BD13F802
:1041AC00014D02F8014DF7E738B50546002943D01B
:1041BC0051F8043C0C1F002BB8BFE41800F0D0F8E9
:1041CC001E4A1368104633B9636014602846BDE874
:1041DC00384000F0CBB8A3420AD921686218934248
:1041EC0001BF1A685B685218226063600460EDE7D7
:1041FC001A465B680BB1A342FAD911685018A04259
:10420C000BD120680144501883421160DED118682C
:10421C005B68014411605360D8E702D90C232B6012
:10422C00D4E7206821188B4201BF19685B68091814
:10423C00216063605460C9E738BD00BFF400002002
:10424C00F8B5CD1C25F0030508350C2D38BF0C2511
:10425C00002D064601DBA94203D90C233360002054
:10426C00F8BD00F07DF821490A6814469CB9204F2E
:10427C003B6823B92146304600F062F83860294685
:10428C00304600F05DF8431C23D10C2330463360DC
:10429C0000F06CF8E3E723685B1B17D40B2B03D9F6
:1042AC0023601C44256004E06368A2420CBF0B60D1
:1042BC005360304600F05AF804F10B00231D20F037
:1042CC000700C21ACCD01B1AA350C9E72246646857
:1042DC00CCE7C41C24F00304A042E3D0211A3046DE
:1042EC0000F02EF80130DDD1CFE700BFF400002044
:1042FC00F8000020F8B5074614460E4621B91146C1
:10430C00BDE8F840FFF79CBF22B9FFF74DFF2546EB
:10431C002846F8BD00F030F8A0420FD221463846AE
:10432C00FFF78EFF05460028F2D031462246FFF7F4
:10433C0013FF31463846FFF737FFE9E73546E7E725
:10434C0038B50023054D044608462B60FDF76CFA82
:10435C00431C02D12B6803B1236038BD340200200A
:10436C00014800F011B800BF3C020020014800F0E9
:10437C000CB800BF3C02002051F8043C181F002B65
:10438C00BCBF0B58C018704770477047F8B500BFDA
:10439C00F8BC08BC9E467047F8B500BFF8BC08BC1A
:0443AC009E46704772
:1043B000526564204C4544204D6F64650000000048
:1043C0004475726174696F6E3A20000059656C6CB7
:1043D0006F77204C4544204D6F64650047726565DA
:1043E0006E204C4544204D6F646500004772656542
:1043F0006E0000005265640059656C6C6F770000B8
:10440000252D313164000000060000000500000089
:10441000030000000000000000000000010203048F
:104420000607080900000000010203040203040556
:10443000060708090A0B0C0D0E0F10100102232DA0
:10444000302B2000686C4C0065666745464700309D
:1044500031323334353637383941424344454600EA
:1044600030313233343536373839616263646566EA
:044470000000000048
:04447400310100080A
:044478000D0100082A
:10447C00010000000100000001000000010000002C
:10448C00010000000100000001000000010000001C
:10449C00010000009600000096000000960000004D
:1044AC0001000000060000000500000003000000F1
:1044BC0000127A00100000000100000050000020E3
:1044CC0000000000000000000000000000000000E0
:1044DC0000000000000000000000000000000000D0
:1044EC0000000000000000000000000000000000C0
:1044FC0000000000000000000000000000000000B0
:10450C00000000000000000000000000000000009F
:10451C00000000000000000000000000000000008F
:04000005080018AD2A
:00000001FF
