:020000040800F2
:1000000000500020111100089110000897100008FE
:100010009D100008A3100008A910000800000000AF
:10002000000000000000000000000000AF10000809
:10003000BB10000800000000C7100008D310000823
:1000400059110008591100085911000859110008E8
:1000500059110008591100085911000859110008D8
:1000600059110008591100085911000859110008C8
:1000700059110008591100085911000859110008B8
:1000800059110008591100085911000859110008A8
:100090005911000859110008591100085911000898
:1000A0005911000859110008591100085911000888
:1000B000E1100008591100085911000859110008F1
:1000C0005911000859110008591100085911000868
:1000D0005911000859110008591100085911000858
:1000E000F51000085911000859110008000000001F
:1000F0000000000000000000000000000000000000
:0C01000000000000000000005FF808F1A3
:10010C0010B5054C237833B9044B13B10448AFF345
:10011C0000800123237010BD4C0000200000000063
:10012C00842C000808B5034B1BB103490348AFF3FB
:10013C00008008BD0000000050000020842C000846
:10014C0080B400AF054B1B68012B01D1012300E0EB
:10015C0000231846BD4680BC704700BF80000020BD
:10016C0080B400AF054B1B68012B01D1012300E0CB
:10017C0000231846BD4680BC704700BF8400002099
:10018C0080B400AF054B1B68012B01D1012300E0AB
:10019C0000231846BD4680BC704700BF8800002075
:1001AC0080B400AF054B1B68012B01D1012300E08B
:1001BC0000231846BD4680BC704700BF7400002069
:1001CC0080B400AF054B1B68012B01D1012300E06B
:1001DC0000231846BD4680BC704700BF7800002045
:1001EC0080B483B000AF78607B68032B11D07B6840
:1001FC00032B12DC7B68012B03D07B68022B04D011
:10020C000BE0084B01221A6007E0074B01221A6031
:10021C0003E0064B01221A6000BF00BF0C37BD463D
:10022C0080BC7047800000208400002088000020E3
:10023C0080B483B000AF78607B68032B11D07B68EF
:10024C00032B12DC7B68012B03D07B68022B04D0C0
:10025C000BE0084B01221A6007E0074B01221A60E1
:10026C0003E0064B01221A6000BF00BF0C37BD46ED
:10027C0080BC704774000020780000207C000020B7
:10028C0080B584B000AF7F4B1B687F4A13607F4BF7
:10029C001B687C4A13604FF400517D4801F04CFA06
:1002AC0003461A46794B1A60784B1A68754B1B68D3
:1002BC009A4207D1754B1A68734B1B689A4201D14D
:1002CC00012300E00023FB60FB68002B17D0FB68C8
:1002DC00012B2CD16C4B1B68002B25D16D4B1B6853
:1002EC00002B06D10120FFF7A3FF6A4B96221A6060
:1002FC001AE0684B1B68013B664A136014E0634BC1
:10030C001A68604B1B689A4210D0604B1B685D4AA0
:10031C0013605C4B1B68002B08D15E4B96221A6055
:10032C000120FFF75DFF01E000BF00E000BF5A4B6A
:10033C001B685A4A13605A4B1B68574A13600121B9
:10034C00584801F0F9F903461A46554B1A60544BBC
:10035C001A68514B1B689A4207D1514B1A684F4B84
:10036C001B689A4201D1012300E00023BB60BB68EB
:10037C00002B17D0BB68012B2CD1484B1B68002BD2
:10038C0025D1494B1B68002B06D10220FFF750FFEB
:10039C00454B96221A601AE0434B1B68013B424ABC
:1003AC00136014E03E4B1A683B4B1B689A4210D00A
:1003BC003B4B1B68384A1360374B1B68002B08D12A
:1003CC00394B96221A600220FFF70AFF01E000BFAA
:1003DC0000E000BF354B1B68354A1360354B1B687A
:1003EC00324A136002212F4801F0A6F903461A463F
:1003FC00304B1A602F4B1A682C4B1B689A4207D152
:10040C002C4B1A682A4B1B689A4201D1012300E03D
:10041C0000237B607B68002B17D07B68012B2CD1D1
:10042C00234B1B68002B25D1234B1B68002B06D1BB
:10043C000320FFF7FDFE204B96221A601AE01E4B9C
:10044C001B68013B1C4A136014E01A4B1A68174BCB
:10045C001B689A4210D0174B1B68144A1360134B3D
:10046C001B68002B08D1144B96221A600320FFF74F
:10047C00B7FE01E000BF00E000BF00BF1037BD4673
:10048C0080BD00BF040000200800002000000020F8
:10049C000010014024000020100000201400002057
:1004AC000C00002000080140280000201C00002047
:1004BC0020000020180000202C00002080B500AF88
:1004CC00584B1B68042B00F2AB8001A252F823F0AE
:1004DC00F10400080F050008530500089B050008EF
:1004EC00DD05000800F0D6F94E4B01221A604FF4DE
:1004FC007A71002000F092FC4B4B1B684B4A136046
:10050C008EE000F069FA4A4B1B68012B40F08180A9
:10051C00464B1B68013B454A1360444B1B68002B40
:10052C0008DC00F0B7F93F4B02221A60414B1B6804
:10053C003E4A13603E4B00221A604FF47A71002041
:10054C0000F06CFC65E000F07DFA394B1B68012B68
:10055C0061D1364B1B68013B344A1360334B1B682B
:10056C00002B0BDC00F096F92E4B03221A60324B59
:10057C001A68304B1B68D31A2C4A13602C4B002280
:10058C001A604FF47A71002000F048FC43E000F050
:10059C00B7F9274B1B68012B3FD1244B1B68013B40
:1005AC00224A1360214B1B68002B08DC00F072F907
:1005BC001C4B04221A601F4B1B681C4A13601C4BFB
:1005CC0000221A604FF47A71002000F027FC24E01E
:1005DC0000F0CCF9164B1B68012B20D1134B1B6878
:1005EC00013B124A1360114B1B68002B08DC00F016
:1005FC0051F90C4B01221A600B4B1B680B4A136010
:10060C000B4B00221A604FF47A71002000F006FCAC
:10061C0005E000BF04E000BF02E000BF00E000BF47
:10062C0000BF80BD68000020340000207000002056
:10063C00980100203C0000203800002080B500AF5D
:10064C005B4B1B680D2B75D00D2B00F3AF800B2B68
:10065C0002D00C2B37D0A9E0FFF782FD0346012B0B
:10066C0004D0FFF7ADFD0346012B0AD1514B1B689B
:10067C000133504A1360504B00221A604F4B00223A
:10068C001A60FFF77DFD0346012B13D14C4B1A6802
:10069C00484B1B6813444A4A1360494B1B68632B35
:1006AC0002DD474B01221A60424B00221A60454B77
:1006BC0000221A60FFF744FD0346012B71D13D4B1C
:1006CC0000221A606DE0FFF74BFD0346012B04D0AE
:1006DC00FFF776FD0346012B0AD1364B1B6801331D
:1006EC00344A1360344B00221A60344B00221A60D7
:1006FC00FFF746FD0346012B13D1334B1A682D4BE4
:10070C001B681344304A13602F4B1B68632B02DDAC
:10071C002D4B01221A60274B00221A60294B002214
:10072C001A60FFF70DFD0346012B3CD1214B002233
:10073C001A6038E0FFF714FD0346012B04D0FFF7D5
:10074C003FFD0346012B0AD11A4B1B680133194A92
:10075C001360194B00221A60184B00221A60FFF725
:10076C000FFD0346012B13D1184B1A68114B1B6854
:10077C001344164A1360154B1B68632B02DD134B95
:10078C0001221A600B4B00221A600E4B00221A60D9
:10079C00FFF7D6FC0346012B07D1064B00221A604B
:1007AC0003E000BF02E000BF00E000BF00BF80BD5F
:1007BC00680000206C0000208400002078000020DD
:1007CC0038000020880000203C000020340000206D
:1007DC0080B500AF194B1B680133184A1360174BD7
:1007EC001B68042B02DD154B02221A60134B1B688D
:1007FC00013B032B20D801A252F823F01908000862
:10080C00210800082D080008390800080C4B0022AC
:10081C001A6011E000F03EF8094B0B221A600BE055
:10082C0000F038F8064B0C221A6005E000F032F8A4
:10083C00034B0D221A6000BF00BF80BD30000020AA
:10084C006800002080B500AFFFF77AFC0346012B4F
:10085C0007D1FFF7BDFF0B4B00221A600A4B002299
:10086C001A60FFF79DFC0346012B08D1074B0122B0
:10087C001A60074B01221A60034B00221A6000BF5A
:10088C0080BD00BF800000207400002068000020A4
:10089C003000002080B500AF00220821154800F080
:1008AC0062FF00222021134800F05DFF002210217E
:1008BC00104800F058FF00224FF480610D4800F002
:1008CC0052FF00224FF480710B4800F04CFF0022C5
:1008DC004FF40071084800F046FF002280210748C1
:1008EC0000F041FF00224021024800F03CFF00BF15
:1008FC0080BD00BF000C0140000801400010014009
:10090C0080B500AF01220821154800F02CFF012210
:10091C002021134800F027FF01221021104800F07D
:10092C0022FF01224FF480610D4800F01CFF0022D1
:10093C004FF480710B4800F016FF01224FF4007148
:10094C00084800F010FF00228021074800F00BFF40
:10095C0001224021024800F006FF00BF80BD00BF0D
:10096C00000C0140000801400010014080B500AFB0
:10097C0001220821154800F0F6FE0122202113481F
:10098C0000F0F1FE01221021104800F0ECFE0122D3
:10099C004FF480610D4800F0E6FE01224FF48071A7
:1009AC000B4800F0E0FE00224FF40071084800F004
:1009BC00DAFE01228021074800F0D5FE00224021FA
:1009CC00024800F0D0FE00BF80BD00BF000C01400B
:1009DC00000801400010014080B500AF0022082142
:1009EC00154800F0C0FE01222021134800F0BBFE88
:1009FC0000221021104800F0B6FE01224FF4806155
:100A0C000D4800F0B0FE01224FF480710B4800F04D
:100A1C00AAFE01224FF40071084800F0A4FE012246
:100A2C008021074800F09FFE01224021024800F07F
:100A3C009AFE00BF80BD00BF000C014000080140C1
:100A4C000010014080B500AF01220821154800F0CC
:100A5C008AFE00222021134800F085FE012210217D
:100A6C00104800F080FE00224FF480610D4800F029
:100A7C007AFE01224FF480710B4800F074FE0122C3
:100A8C004FF40071084800F06EFE012280210748E7
:100A9C0000F069FE01224021024800F064FE00BF14
:100AAC0080BD00BF000C0140000801400010014057
:100ABC0080B500AF00F04CFB00F014F800F0F6F835
:100ACC0000F0CAF800F04EF800F07AF8044801F093
:100ADC0027FCFFF7F3FCFFF7B1FDFFF7B3FEF8E7D8
:100AEC00E000002080B590B000AF07F11803282279
:100AFC000021184602F0B8F83B1D00221A605A601B
:100B0C009A60DA601A610223BB610123BB62102375
:100B1C00FB6202237B630023BB630023FB6307F1AF
:100B2C001803184600F09EFF0346002B01D000F07E
:100B3C006FF90F237B600223BB600023FB604FF433
:100B4C0080633B6100237B613B1D0021184601F053
:100B5C0009FA0346002B01D000F05AF900BF4037C8
:100B6C00BD4680BD80B500AF124B134A1A60114BC5
:100B7C00124A5A600F4B00229A600E4B0022DA6028
:100B8C000C4B4FF480421A610A4B00225A61094BFC
:100B9C0000229A61074B0022DA61064B00221A628E
:100BAC00044800F01BFE0346002B01D000F030F986
:100BBC0000BF80BD8C00002000540040A0860100C6
:100BCC0080B586B000AF07F1080300221A605A60A6
:100BDC009A60DA603B4600221A605A601D4B4FF057
:100BEC0080421A601B4B41F63F725A60194B00222F
:100BFC009A60184B0922DA60164B00221A61154BC9
:100C0C0000229A61134801F03BFB0346002B01D0F4
:100C1C0000F0FEF84FF48053BB6007F1080319464F
:100C2C000C4801F0BFFC0346002B01D000F0F0F89B
:100C3C0000233B6000237B603B461946054801F0CE
:100C4C00A1FE0346002B01D000F0E2F800BF1837DC
:100C5C00BD4680BDE000002080B500AF114B124AAC
:100C6C001A60104B4FF4E1325A600E4B00229A601E
:100C7C000C4B0022DA600B4B00221A61094B0C2240
:100C8C005A61084B00229A61064B0022DA61054832
:100C9C0001F0E8FE0346002B01D000F0B9F800BFCC
:100CAC0080BD00BF280100200044004080B588B002
:100CBC0000AF07F1100300221A605A609A60DA60E4
:100CCC00484B9B69474A43F010039361454B9B6922
:100CDC0003F01003FB60FB68424B9B69414A43F0F5
:100CEC00200393613F4B9B6903F02003BB60BB68FF
:100CFC003C4B9B693B4A43F004039361394B9B6922
:100D0C0003F004037B607B68364B9B69354A43F0E8
:100D1C0008039361334B9B6903F008033B603B680A
:100D2C0000224FF44C71304800F01DFD00224FF4AE
:100D3C008F612E4800F017FD002280212C4800F016
:100D4C0012FD4FF400533B612A4B7B610023BB61C6
:100D5C0007F110031946264800F06AFB03233B6198
:100D6C0000237B610123BB6107F1100319461E4868
:100D7C0000F05EFB4FF44C733B6101237B6100235D
:100D8C00BB610223FB6107F110031946164800F002
:100D9C004FFB4FF48F633B6101237B610023BB61ED
:100DAC000223FB6107F110031946104800F040FBC9
:100DBC0080233B6101237B610023BB610223FB6128
:100DCC0007F1100319460A4800F032FB00220021FB
:100DDC00282000F0F6FA282000F00FFB00BF203787
:100DEC00BD4680BD0010024000080140000C0140CF
:100DFC00001001400000111080B582B000AF786087
:100E0C0000F02CF8FFF73CFA00BF0837BD4680BD58
:100E1C0080B400AF72B600BFFEE7000080B483B0B0
:100E2C0000AF786039600A4A7B68002142F82310D1
:100E3C003B68084A82FB03129210DB17D21A064950
:100E4C007B6841F8232000BF0C37BD4680BC70473F
:100E5C0098010020676666667001002080B483B03C
:100E6C0000AF00237B601CE0124A7B6852F82330F1
:100E7C00002B13DD0F4A7B6852F823305A1E0D49A4
:100E8C007B6841F823200B4A7B6852F82330002BF7
:100E9C0004DC094A7B68012142F823107B6801338A
:100EAC007B607B68092BDFDD00BF00BF0C37BD46C4
:100EBC0080BC7047700100209801002080B485B080
:100ECC0000AF154B9B69144A43F001039361124B1D
:100EDC009B6903F00103BB60BB680F4BDB690E4AD7
:100EEC0043F08053D3610C4BDB6903F080537B6080
:100EFC007B680A4B5B68FB60FB6823F0E063FB607C
:100F0C00FB6843F00073FB60044AFB68536000BF4E
:100F1C001437BD4680BC70470010024000000140F1
:100F2C0080B58AB000AF786007F1140300221A6014
:100F3C005A609A60DA607B681B681D4A934232D112
:100F4C001C4B9B691B4A43F008039361194B9B692B
:100F5C0003F008033B613B694FF440737B61122340
:100F6C00BB6103233B6207F114031946124800F0DE
:100F7C005FFA124B5B687B627B6A43F0E0637B62D7
:100F8C007B6A43F002037B620C4A7B6A5360094B19
:100F9C00DB69084A43F40013D361064BDB6903F4A5
:100FAC000013FB60FB6800BF2837BD4680BD00BF47
:100FBC000054004000100240000C014000000140B1
:100FCC0080B584B000AF78607B681B68B3F1804F4C
:100FDC0013D10C4BDB690B4A43F00103D361094B72
:100FEC00DB6903F00103FB60FB68002200211C207D
:100FFC0000F0E7F91C2000F000FA00BF1037BD46E6
:10100C0080BD00BF0010024080B588B000AF786092
:10101C0007F1100300221A605A609A60DA607B684C
:10102C001B68154A934223D1144BDB69134A43F4D2
:10103C000033D361114BDB6903F40033FB60FB68B5
:10104C000E4B9B690D4A43F0040393610B4B9B6958
:10105C0003F00403BB60BB680C233B6102237B6180
:10106C000223FB6107F110031946054800F0E0F973
:10107C0000BF2037BD4680BD004400400010024038
:10108C000008014080B400AFFEE780B400AFFEE77B
:10109C0080B400AFFEE780B400AFFEE780B400AFD1
:1010AC00FEE780B400AF00BFBD4680BC704780B483
:1010BC0000AF00BFBD4680BC704780B400AF00BF1E
:1010CC00BD4680BC704780B500AF00F087F800BF0C
:1010DC0080BD000080B500AF024801F073F900BF7D
:1010EC0080BD00BFE000002080B500AF4FF4005081
:1010FC0000F052FB00BF80BD80B400AF00BFBD4606
:10110C0080BC7047FFF7F8FF0B480C490C4A0023D2
:10111C0002E0D458C4500433C4188C42F9D3094AA1
:10112C00094C002301E013600432A242FBD301F00E
:10113C0077FDFFF7BDFC7047000000204C0000203D
:10114C00D02C00084C000020C4010020FEE7000059
:10115C0080B500AF084B1B68074A43F010031360BF
:10116C00032000F023F9002000F008F8FFF7A6FE9A
:10117C000023184680BD00BF0020024080B582B01D
:10118C0000AF7860124B1A68124B1B7819464FF45B
:10119C007A73B3FBF1F3B2FBF3F3184600F03BF9AF
:1011AC000346002B01D001230EE07B680F2B0AD8DD
:1011BC00002279684FF0FF3000F003F9064A7B6893
:1011CC001360002300E0012318460837BD4680BD9C
:1011DC0040000020480000204400002080B400AFF4
:1011EC00054B1B781A46054B1B681344034A1360C6
:1011FC0000BFBD4680BC704748000020C0010020E5
:10120C0080B400AF024B1B681846BD4680BC7047CB
:10121C00C001002080B485B000AF78607B6803F01B
:10122C000703FB600C4BDB68BB60BA684FF6FF032F
:10123C001340BB60FB681A02BB68134343F0BF63E7
:10124C0043F40033BB60044ABB68D36000BF14375F
:10125C00BD4680BC704700BF00ED00E080B400AF1D
:10126C00044BDB681B0A03F007031846BD4680BC21
:10127C00704700BF00ED00E080B483B000AF0346C0
:10128C00FB7197F90730002B0BDBFB7903F01F0286
:10129C00064997F907305B09012000FA02F241F880
:1012AC00232000BF0C37BD4680BC704700E100E036
:1012BC0080B483B000AF03463960FB7197F90730F7
:1012CC00002B0ADB3B68DAB20C4997F907301201A4
:1012DC00D2B20B4483F800230AE03B68DAB2084927
:1012EC00FB7903F00F03043B1201D2B20B441A76C4
:1012FC0000BF0C37BD4680BC704700BF00E100E06A
:10130C0000ED00E080B489B000AFF860B9607A609D
:10131C00FB6803F00703FB61FB69C3F10703042BB4
:10132C0028BF0423BB61FB690433062B02D9FB697C
:10133C00033B00E000237B614FF0FF32BB6902FAF4
:10134C0003F3DA43BB681A407B699A404FF0FF31D4
:10135C007B6901FA03F3D9437B680B4013431846AE
:10136C002437BD4680BC704780B582B000AF786032
:10137C007B68013BB3F1807F01D301230FE00A4A64
:10138C007B68013B53600F214FF0FF30FFF790FF5C
:10139C00054B00229A60044B07221A600023184662
:1013AC000837BD4680BD00BF10E000E080B582B0BC
:1013BC0000AF78607868FFF72DFF00BF0837BD4697
:1013CC0080BD80B586B000AF0346B9607A60FB7310
:1013DC0000237B61FFF742FF78617A68B96878690E
:1013EC00FFF790FF024697F90F3011461846FFF7AA
:1013FC005FFF00BF1837BD4680BD80B582B000AF1F
:10140C000346FB7197F907301846FFF735FF00BF0D
:10141C000837BD4680BD80B582B000AF7860786873
:10142C00FFF7A2FF034618460837BD4680BD0000F3
:10143C0080B48BB000AF7860396000237B620023EE
:10144C003B6269E101227B6A02FA03F3FB613B68B0
:10145C001B68FA691340BB61BA69FB699A4240F098
:10146C0058813B685B689A4A93425ED0984A934293
:10147C0075D8984A934258D0964A93426FD8964A58
:10148C00934252D0944A934269D8944A93424CD096
:10149C00924A934263D8924A934246D0904A9342DE
:1014AC005DD8122B2AD8122B59D801A252F823F04E
:1014BC0037150008111500082315000865150008DC
:1014CC006B1500086B1500086B1500086B150008F0
:1014DC006B1500086B1500086B1500086B150008E0
:1014EC006B1500086B1500086B1500086B150008D0
:1014FC006B150008191500082D150008794A934240
:10150C0013D02CE03B68DB683B6229E03B68DB686E
:10151C0004333B6224E03B68DB6808333B621FE02A
:10152C003B68DB680C333B621AE03B689B68002B22
:10153C0002D104233B6213E03B689B68012B05D16D
:10154C0008233B627B68FA691A6109E008233B6255
:10155C007B68FA695A6103E000233B6200E000BF3C
:10156C00BB69FF2B01D87B6801E07B6804337B618E
:10157C00BB69FF2B02D87B6A9B0002E07B6A083BAD
:10158C009B003B617B691A680F213B6901FA03F3ED
:10159C00DB431A40396A3B6901FA03F31A437B694E
:1015AC001A603B685B6803F08053002B00F0B1803D
:1015BC004D4B9B694C4A43F0010393614A4B9B6929
:1015CC0003F00103BB60BB68484A7B6A9B0802338B
:1015DC0052F82330FB607B6A03F003039B000F225D
:1015EC0002FA03F3DB43FA681340FB607B68404A62
:1015FC00934213D07B683F4A93420DD07B683E4A9E
:10160C00934207D07B683D4A934201D1032306E005
:10161C00042304E0022302E0012300E000237A6AA1
:10162C0002F0030292009340FA681343FB602F49C7
:10163C007B6A9B080233FA6841F823203B685B689D
:10164C0003F48013002B06D02D4B9A682C49BB69F0
:10165C0013438B6006E02A4B9A68BB69DB4328492D
:10166C0013408B603B685B6803F40013002B06D0BF
:10167C00234BDA682249BB691343CB6006E0204B4D
:10168C00DA68BB69DB431E491340CB603B685B687F
:10169C0003F40033002B06D0194B5A681849BB6968
:1016AC0013434B6006E0164B5A68BB69DB43144985
:1016BC0013404B603B685B6803F48033002B21D0F4
:1016CC000F4B1A680E49BB6913430B6021E000BF36
:1016DC000000321000003110000022100000211018
:1016EC000000121000001110001002400000014018
:1016FC0000080140000C01400010014000140140A2
:10170C00000401400B4B1A68BB69DB4309491340C9
:10171C000B607B6A01337B623B681A687B6A22FA36
:10172C0003F3002B7FF48EAE00BF00BF2C37BD46F9
:10173C0080BC70470004014080B485B000AF786075
:10174C000B467B807B689A687B881340002B02D009
:10175C000123FB7301E00023FB73FB7B184614375A
:10176C00BD4680BC704780B483B000AF78600B4638
:10177C007B8013467B707B78002B03D07A887B6848
:10178C001A6103E07B881A047B681A6100BF0C376E
:10179C00BD4680BC7047000080B582B000AF0346E8
:1017AC00FB80084B5A69FB881340002B06D0054A76
:1017BC00FB885361FB88184600F006F800BF083719
:1017CC00BD4680BD0004014080B483B000AF034629
:1017DC00FB8000BF0C37BD4680BC704780B584B021
:1017EC0000AF78607B68002B01D101232BE17B6873
:1017FC0093F83D30DBB2002B06D17B68002283F8D6
:10180C003C207868FFF78CFB7B68242283F83D2012
:10181C007B681B681A687B681B6822F001021A60DF
:10182C007B681B681A687B681B6842F400421A606C
:10183C007B681B681A687B681B6822F400421A607C
:10184C0000F0D8FCF8607B685B68814A934207D84B
:10185C00FB68804A934294BF01230023DBB206E06D
:10186C00FB687D4A934294BF01230023DBB2002B1B
:10187C0001D00123E7E0FB68784AA2FB03239B0C11
:10188C00BB607B681B685B6823F03F017B681B684F
:10189C00BA680A435A607B681B681B6A23F03F01D5
:1018AC007B685B686A4A934202D8BB68013309E0E3
:1018BC00BB684FF4967202FB03F3694AA2FB032345
:1018CC009B0901337A6812680B4313627B681B68AF
:1018DC00DB6923F44F4222F0FF027B685B685C49B2
:1018EC008B4219D8FB68591E7B685B685B00B1FBA7
:1018FC00F3F3591C40F6FC730B40002B0AD0FB6829
:10190C00591E7B685B685B00B1FBF3F30133C3F3D7
:10191C000B0351E004234FE07B689B68002B11D133
:10192C00FB68581E7B6859680B465B000B44B0FB88
:10193C00F3F30133C3F30B03002B0CBF0123002380
:10194C00DBB212E0FB68581E7B6859680B469B00A3
:10195C000B4499000B44B0FBF3F30133C3F30B03BB
:10196C00002B0CBF01230023DBB2002B01D0012381
:10197C0022E07B689B68002B0ED1FB68581E7B68AD
:10198C0059680B465B000B44B0FBF3F30133C3F314
:10199C000B0343F400430FE0FB68581E7B68596847
:1019AC000B469B000B4499000B44B0FBF3F3013343
:1019BC00C3F30B0343F44043796809681343CB61C9
:1019CC007B681B681B6823F0C0017B68DA697B6845
:1019DC001B6A1A437B681B680A431A607B681B6886
:1019EC009B6823F4034323F0FF037A6811697A6838
:1019FC00D26811437A6812680B4393607B681B684A
:101A0C00DB6823F0FF017B685A697B689B691A438A
:101A1C007B681B680A43DA607B681B681A687B6802
:101A2C001B6842F001021A607B6800221A647B6812
:101A3C00202283F83D207B6800221A637B680022F9
:101A4C0083F83E20002318461037BD4680BD00BFEA
:101A5C00A08601007F841E00FF083D0083DE1B432F
:101A6C00D34D621080B586B000AF78607B68002BD8
:101A7C0001D101236CE27B681B6803F00103002B8E
:101A8C0000F08780924B5B6803F00C03042B0CD0A6
:101A9C008F4B5B6803F00C03082B12D18C4B5B68EB
:101AAC0003F48033B3F5803F0BD1894B1B6803F4EF
:101ABC000033002B6CD07B685B68002B68D1012352
:101ACC0046E27B685B68B3F5803F06D1804B1B68B0
:101ADC007F4A43F4803313602EE07B685B68002BF5
:101AEC000CD17B4B1B687A4A23F480331360784B00
:101AFC001B68774A23F4802313601DE07B685B68C6
:101B0C00B3F5A02F0CD1724B1B68714A43F48023A0
:101B1C0013606F4B1B686E4A43F4803313600BE009
:101B2C006B4B1B686A4A23F480331360684B1B6849
:101B3C00674A23F4802313607B685B68002B13D007
:101B4C00FFF75EFB386108E0FFF75AFB02463B6982
:101B5C00D31A642B01D90323FAE15D4B1B6803F400
:101B6C000033002BF0D014E0FFF74AFB386108E09B
:101B7C00FFF746FB02463B69D31A642B01D90323BA
:101B8C00E6E1534B1B6803F40033002BF0D100E06B
:101B9C0000BF7B681B6803F00203002B63D04C4B27
:101BAC005B6803F00C03002B0BD0494B5B6803F014
:101BBC000C03082B1CD1464B5B6803F48033002BC1
:101BCC0016D1434B1B6803F00203002B05D07B6836
:101BDC001B69012B01D00123BAE13D4B1B6823F09B
:101BEC00F8027B685B69DB00394913430B603AE010
:101BFC007B681B69002B20D0364B01221A60FFF743
:101C0C00FFFA386108E0FFF7FBFA02463B69D31A8A
:101C1C00022B01D903239BE12D4B1B6803F002031C
:101C2C00002BF0D02A4B1B6823F0F8027B685B6911
:101C3C00DB00274913430B6015E0264B00221A608A
:101C4C00FFF7DEFA386108E0FFF7DAFA02463B6983
:101C5C00D31A022B01D903237AE11D4B1B6803F025
:101C6C000203002BF0D17B681B6803F00803002BE8
:101C7C003AD07B689B69002B19D0174B01221A6054
:101C8C00FFF7BEFA386108E0FFF7BAFA02463B6983
:101C9C00D31A022B01D903235AE10D4B5B6A03F0D3
:101CAC000203002BF0D0012000F0CCFA1CE00A4B10
:101CBC0000221A60FFF7A4FA38610FE0FFF7A0FAD0
:101CCC0002463B69D31A022B08D9032340E100BF1B
:101CDC000010024000004242800442429E4B5B6A6C
:101CEC0003F00203002BE9D17B681B6803F00403AB
:101CFC00002B00F0A6800023FB75974BDB6903F0EB
:101D0C008053002B0DD1944BDB69934A43F08053E5
:101D1C00D361914BDB6903F08053BB60BB6801233B
:101D2C00FB758E4B1B6803F48073002B18D18B4B07
:101D3C001B688A4A43F480731360FFF761FA3861B9
:101D4C0008E0FFF75DFA02463B69D31A642B01D910
:101D5C000323FDE0814B1B6803F48073002BF0D050
:101D6C007B68DB68012B06D17B4B1B6A7A4A43F0FC
:101D7C00010313622DE07B68DB68002B0CD1764BE2
:101D8C001B6A754A23F001031362734B1B6A724A78
:101D9C0023F0040313621CE07B68DB68052B0CD179
:101DAC006D4B1B6A6C4A43F0040313626A4B1B6A4B
:101DBC00694A43F0010313620BE0674B1B6A664AE6
:101DCC0023F001031362644B1B6A634A23F0040380
:101DDC0013627B68DB68002B15D0FFF711FA3861B2
:101DEC000AE0FFF70DFA02463B69D31A41F288323A
:101DFC00934201D90323ABE0574B1B6A03F0020358
:101E0C00002BEED014E0FFF7FBF938610AE0FFF786
:101E1C00F7F902463B69D31A41F28832934201D951
:101E2C00032395E04C4B1B6A03F00203002BEED10D
:101E3C00FB7D012B05D1484BDB69474A23F08053CE
:101E4C00D3617B68DB69002B00F08180424B5B68BF
:101E5C0003F00C03082B61D07B68DB69022B46D1A5
:101E6C003F4B00221A60FFF7CBF9386108E0FFF70F
:101E7C00C7F902463B69D31A022B01D9032367E049
:101E8C00354B1B6803F00073002BF0D17B681B6A89
:101E9C00B3F5803F08D1304B5B6823F400327B688C
:101EAC009B682D4913434B602B4B5B6823F47412D6
:101EBC007B68196A7B685B6A0B43274913434B6049
:101ECC00274B01221A60FFF79BF9386108E0FFF7F6
:101EDC0097F902463B69D31A022B01D9032337E049
:101EEC001D4B1B6803F00073002BF0D02FE01C4B34
:101EFC0000221A60FFF784F9386108E0FFF780F9D7
:101F0C0002463B69D31A022B01D9032320E0124B62
:101F1C001B6803F00073002BF0D118E07B68DB69C1
:101F2C00012B01D1012313E00B4B5B68FB60FB68B9
:101F3C0003F480327B681B6A9A4206D1FB6803F477
:101F4C0070127B685B6A9A4201D0012300E0002387
:101F5C0018461837BD4680BD001002400070004086
:101F6C006000424280B584B000AF786039607B6815
:101F7C00002B01D10123D0E06A4B1B6803F007034F
:101F8C003A689A4210D9674B1B6823F007026549DF
:101F9C003B6813430B60634B1B6803F007033A6801
:101FAC009A4201D00123B8E07B681B6803F002035E
:101FBC00002B20D07B681B6803F00403002B05D09A
:101FCC00594B5B68584A43F4E06353607B681B6869
:101FDC0003F00803002B05D0534B5B68524A43F4C3
:101FEC0060535360504B5B6823F0F0027B689B6836
:101FFC004D4913434B607B681B6803F00103002BB6
:10200C0040D07B685B68012B07D1474B1B6803F4FE
:10201C000033002B15D101237FE07B685B68022B1A
:10202C0007D1414B1B6803F00073002B09D101232E
:10203C0073E03D4B1B6803F00203002B01D101231D
:10204C006BE0394B5B6823F003027B685B683649B5
:10205C0013434B60FFF7D4F8F8600AE0FFF7D0F8B1
:10206C000246FB68D31A41F28832934201D903230A
:10207C0053E02D4B5B6803F00C027B685B689B00A4
:10208C009A42EBD1274B1B6803F007033A689A423C
:10209C0010D2244B1B6823F0070222493B681343E0
:1020AC000B60204B1B6803F007033A689A4201D07F
:1020BC00012332E07B681B6803F00403002B08D07B
:1020CC00194B5B6823F4E0627B68DB6816491343A9
:1020DC004B607B681B6803F00803002B09D0124B84
:1020EC005B6823F460527B681B69DB000E49134369
:1020FC004B6000F021F802460B4B5B681B0903F0A8
:10210C000F030A49CB5C22FA03F3094A1360094B0B
:10211C001B681846FFF732F8002318461037BD46E7
:10212C0080BD00BF00200240001002409C2C000823
:10213C00400000204400002080B487B000AF002392
:10214C00FB600023BB6000237B6100237B600023CA
:10215C003B611E4B5B68FB60FB6803F00C03042BBC
:10216C0002D0082B03D027E0194B3B6127E0FB681A
:10217C009B0C03F00F03174AD35C7B60FB6803F4E2
:10218C008033002B10D0114B5B685B0C03F0010308
:10219C00114AD35CBB607B680D4A02FB03F2BB683F
:1021AC00B2FBF3F37B6104E07B680C4A02FB03F3A4
:1021BC007B617B693B6102E0054B3B6100BF3B6986
:1021CC0018461C37BD4680BC704700BF001002404B
:1021DC0000127A00B42C0008C42C000800093D0041
:1021EC0080B400AF024B1B681846BD4680BC7047DC
:1021FC004000002080B500AFFFF7F2FF0246054B10
:10220C005B681B0A03F007030349CB5C22FA03F358
:10221C00184680BD00100240AC2C000880B500AF01
:10222C00FFF7DEFF0246054B5B68DB0A03F0070392
:10223C000349CB5C22FA03F3184680BD0010024020
:10224C00AC2C000880B485B000AF78600A4B1B68DA
:10225C000A4AA2FB03235B0A7A6802FB03F3FB60C6
:10226C0000BFFB685A1EFA60002BF9D100BF00BFFB
:10227C001437BD4680BC704740000020D34D62101F
:10228C0080B582B000AF78607B68002B01D1012350
:10229C0041E07B6893F83D30DBB2002B06D17B68C4
:1022AC00002283F83C207868FEF78AFE7B680222C5
:1022BC0083F83D207B681A687B6804331946104606
:1022CC0000F05CFA7B68012283F846207B680122CF
:1022DC0083F83E207B68012283F83F207B68012233
:1022EC0083F840207B68012283F841207B6801221F
:1022FC0083F842207B68012283F843207B6801220B
:10230C0083F844207B68012283F845207B680122F6
:10231C0083F83D20002318460837BD4680BD0000D9
:10232C0080B485B000AF78607B6893F83D30DBB249
:10233C00012B01D001233AE07B68022283F83D2077
:10234C007B681B68DA687B681B6842F00102DA6004
:10235C007B681B68184A93420ED07B681B68B3F1EC
:10236C00804F09D07B681B68144A934204D07B6869
:10237C001B68134A934211D17B681B689B6803F05E
:10238C000703FB60FB68062B10D07B681B681A6880
:10239C007B681B6842F001021A6007E07B681B68CF
:1023AC001A687B681B6842F001021A600023184609
:1023BC001437BD4680BC7047002C0140000400401F
:1023CC000008004080B584B000AF78607B681B6863
:1023DC00DB68FB607B681B681B69BB60BB6803F038
:1023EC000203002B20D0FB6803F00203002B1BD050
:1023FC007B681B686FF002021A617B6801221A77F6
:10240C007B681B689B6903F00303002B03D078687F
:10241C0000F098F905E0786800F08BF9786800F026
:10242C009AF97B6800221A77BB6803F00403002B2F
:10243C0020D0FB6803F00403002B1BD07B681B68C7
:10244C006FF004021A617B6802221A777B681B68A2
:10245C009B6903F44073002B03D0786800F072F989
:10246C0005E0786800F065F9786800F074F97B682D
:10247C0000221A77BB6803F00803002B20D0FB68FE
:10248C0003F00803002B1BD07B681B686FF008025D
:10249C001A617B6804221A777B681B68DB6903F07E
:1024AC000303002B03D0786800F04CF905E0786842
:1024BC0000F03FF9786800F04EF97B6800221A773B
:1024CC00BB6803F01003002B20D0FB6803F0100353
:1024DC00002B1BD07B681B686FF010021A617B68A5
:1024EC0008221A777B681B68DB6903F44073002BA6
:1024FC0003D0786800F026F905E0786800F019F947
:10250C00786800F028F97B6800221A77BB6803F022
:10251C000103002B0CD0FB6803F00103002B07D048
:10252C007B681B686FF001021A617868FEF764FC27
:10253C00BB6803F08003002B0CD0FB6803F0800316
:10254C00002B07D07B681B686FF080021A617868DB
:10255C0000F07FFABB6803F04003002B0CD0FB6843
:10256C0003F04003002B07D07B681B686FF0400220
:10257C001A61786800F0F8F8BB6803F02003002BB0
:10258C000CD0FB6803F02003002B07D07B681B6882
:10259C006FF020021A61786800F052FA00BF103711
:1025AC00BD4680BD80B584B000AF78603960002333
:1025BC00FB737B6893F83C30012B01D10223B4E010
:1025CC007B68012283F83C207B68022283F83D2043
:1025DC007B681B689B68BB60BB6823F07703BB60A0
:1025EC00BB6823F47F43BB607B681B68BA689A6046
:1025FC003B681B68B3F5005F3ED0B3F5005F00F29B
:10260C008780B3F5805F00F08680B3F5805F7FD85C
:10261C00702B1AD0702B7BD8602B50D0602B77D8B6
:10262C00502B3CD0502B73D8402B58D0402B6FD80C
:10263C00302B64D0302B6BD8202B60D0202B67D85C
:10264C00002B5CD0102B5AD062E07B6818683B687A
:10265C0099683B685A683B68DB6800F074F97B68E2
:10266C001B689B68BB60BB6843F07703BB607B68EF
:10267C001B68BA689A604FE07B6818683B68996879
:10268C003B685A683B68DB6800F05DF97B681B6847
:10269C009A687B681B6842F480429A603CE07B68D5
:1026AC0018683B6859683B68DB681A4600F0D4F838
:1026BC007B681B685021184600F02BF92CE07B68D6
:1026CC0018683B6859683B68DB681A4600F0F2F8FA
:1026DC007B681B686021184600F01BF91CE07B68C6
:1026EC0018683B6859683B68DB681A4600F0B4F818
:1026FC007B681B684021184600F00BF90CE07B68E6
:10270C001A683B681B681946104600F002F903E092
:10271C000123FB7300E000BF7B68012283F83D209E
:10272C007B68002283F83C20FB7B18461037BD46A3
:10273C0080BD80B483B000AF786000BF0C37BD465D
:10274C0080BC704780B483B000AF786000BF0C379A
:10275C00BD4680BC704780B483B000AF786000BFCA
:10276C000C37BD4680BC704780B483B000AF786036
:10277C0000BF0C37BD4680BC7047000080B485B0EC
:10278C0000AF786039607B681B68FB607B682F4A00
:10279C0093420BD07B68B3F1804F07D07B682C4AF7
:1027AC00934203D07B682B4A934208D1FB6823F0F9
:1027BC007003FB603B685B68FA681343FB607B68E3
:1027CC00224A93420BD07B68B3F1804F07D07B68D1
:1027DC001F4A934203D07B681E4A934208D1FB6880
:1027EC0023F44073FB603B68DB68FA681343FB60BF
:1027FC00FB6823F080023B685B691343FB607B68DA
:10280C00FA681A603B689A687B68DA623B681A68F7
:10281C007B689A627B680D4A934203D13B681A69C4
:10282C007B681A637B6801225A617B681B6903F021
:10283C000103002B05D07B681B6923F001027B6828
:10284C001A6100BF1437BD4680BC7047002C014094
:10285C00000400400008004080B487B000AFF8606E
:10286C00B9607A60FB681B6A7B61FB681B6A23F0AA
:10287C000102FB681A62FB689B693B613B6923F0B0
:10288C00F0033B617B681B013A6913433B617B6935
:10289C0023F00A037B617A69BB6813437B61FB6895
:1028AC003A699A61FB687A691A6200BF1C37BD46A7
:1028BC0080BC704780B487B000AFF860B9607A60B4
:1028CC00FB681B6A7B61FB681B6A23F01002FB68C8
:1028DC001A62FB689B693B613B6923F470433B6163
:1028EC007B681B033A6913433B617B6923F0A003AC
:1028FC007B61BB681B017A6913437B61FB683A6996
:10290C009A61FB687A691A6200BF1C37BD4680BCAD
:10291C00704780B485B000AF786039607B689B6885
:10292C00FB60FB6823F07003FB603A68FB681343A1
:10293C0043F00703FB607B68FA689A6000BF1437AA
:10294C00BD4680BC704780B487B000AFF860B960FA
:10295C007A603B60FB689B687B617B6923F47F43F7
:10296C007B613B681A027B681A43BB6813437A6924
:10297C0013437B61FB687A699A6000BF1C37BD46C4
:10298C0080BC704780B485B000AF786039607B68DC
:10299C0093F83C30012B01D1022346E07B680122E5
:1029AC0083F83C207B68022283F83D207B681B68FF
:1029BC005B68FB607B681B689B68BB60FB6823F0F3
:1029CC007003FB603B681B68FA681343FB607B6811
:1029DC001B68FA685A607B681B68164A93420ED0D3
:1029EC007B681B68B3F1804F09D07B681B68124A67
:1029FC00934204D07B681B68104A93420CD1BB688D
:102A0C0023F08003BB603B685B68BA681343BB6010
:102A1C007B681B68BA689A607B68012283F83D204A
:102A2C007B68002283F83C20002318461437BD46EF
:102A3C0080BC7047002C014000040040000800409E
:102A4C0080B483B000AF786000BF0C37BD4680BC4B
:102A5C00704780B483B000AF786000BF0C37BD46C0
:102A6C0080BC704780B582B000AF78607B68002B6B
:102A7C0001D1012342E07B6893F84130DBB2002B9B
:102A8C0006D17B68002283F840207868FEF7BCFAF8
:102A9C007B68242283F841207B681B68DA687B689A
:102AAC001B6822F40052DA60786800F02BF87B681F
:102ABC001B681A697B681B6822F490421A617B6858
:102ACC001B685A697B681B6822F02A025A617B6872
:102ADC001B68DA687B681B6842F40052DA607B681A
:102AEC0000225A647B68202283F841207B682022D4
:102AFC0083F842207B6800225A630023184608376B
:102B0C00BD4680BD80B584B000AF78607B681B6823
:102B1C001B6923F440517B68DA687B681B680A43A5
:102B2C001A617B689A687B681B691A437B685B69CE
:102B3C001343BB607B681B68DB6823F4B05323F042
:102B4C000C037A681268B9680B43D3607B681B6806
:102B5C005B6923F440717B689A697B681B680A4344
:102B6C005A617B681B682C4A934203D1FFF756FBD2
:102B7C00F86002E0FFF73EFBF860FA6813469B0032
:102B8C0013449A001A447B685B689B00B2FBF3F316
:102B9C00224AA2FB03235B091901FA6813469B0026
:102BAC0013449A001A447B685B689B00B2FBF3F2F7
:102BBC001A4BA3FB02035B09642000FB03F3D31A3B
:102BCC001B013233154AA2FB03235B0903F0F0030C
:102BDC001944FA6813469B0013449A001A447B6804
:102BEC005B689B00B2FBF3F20C4BA3FB02035B098B
:102BFC00642000FB03F3D31A1B013233074AA2FBF8
:102C0C0003235B0903F00F027B681B680A449A607C
:102C1C0000BF1037BD4680BD003801401F85EB5109
:102C2C0070B500260C4D0D4C641BA410A64209D1A6
:102C3C0000F022F800260A4D0A4C641BA410A64290
:102C4C0005D170BD55F8043B98470136EEE755F8B1
:102C5C00043B98470136F2E7C82C0008C82C000842
:102C6C00C82C0008CC2C000803460244934200D127
:102C7C00704703F8011BF9E7F8B500BFF8BC08BCB6
:102C8C009E467047F8B500BFF8BC08BC9E4670471E
:102C9C000000000000000000010203040607080900
:102CAC0000000000010203040203040506070809E2
:0C2CBC000A0B0C0D0E0F1010010200009E
:042CC80031010008CE
:042CCC000D010008EE
:102CD00001000000010000000100000001000000F0
:102CE00001000000010000000100000001000000E0
:102CF0000100000096000000FA000000FA00000049
:102D000001000000060000000500000003000000B4
:0C2D100000127A0010000000010000001A
:0400000508001111CD
:00000001FF
